S01100005A334C69676874536F632E73333739
S31500000000E01A0020614B020079C400007DC40000A4
S31500000010A70A02020002000004180FAC5065B001E6
S3150000002000000000000000000000000000000000CA
S315000000300000000068EE0300000000000000000061
S315000000400000000000000000FFFFFFFFFFFFFFFFB2
S31500000050FFFFFFFFFFFFFFFFFFFFFFFFFFFFFFFFAA
S3150000006000E00F000100000000001000FFFFFFFF8E
S31500000070FFFFFFFF1C000000000000000000000062
S31500000080085F00200453002004530020045300207E
S31500000090E01A0020483E0400FC9003008011002076
S311000000A04811002000001000085F00203E
S31500000200E01A0020614B020079C400007DC40000A2
S3150000021085C4000081C4000089C400005D4B020053
S315000002205D4B02005D4B02005D4B02005D4B020020
S315000002308DC400005D4B02005D4B02005D4B020069
S315000002400DDE00006520020071C7000000C5000039
S31500000250291B0200D1200200712002008920020021
S315000002606920020041D5000015D6000031F40000D7
S31500000270419F010000C5000000C5000031A000003C
S3150000028000C5000000C5000039D60000B57E00009C
S3150000029000C5000000C5000000C5000000C5000044
S315000002A000C5000000C5000000C5000000C5000034
S315000002B0D52002006D20020091DB0000152102000E
S315000002C000C500003DDC010000C5000000C50000BF
S315000002D000C5000000C5000000C5000000C5000004
S315000002E000C5000000C5000000C5000000C50000F4
S315000002F000C5000000C5000000C5000000C50000E4
S3110000030000C5000000C500005D4B0200B7
S3150000030CF8B500BFF8BC08BC9E467047F8B500BFF0
S3150000031CF8BC08BC9E46704710B5054C237833B91B
S3150000032C044B13B10448AFF300800123237010BDB6
S3150000033CD8210020000000004837040008B5034B04
S3150000034C1BB103490348AFF3008008BD0000000051
S3150000035CDC21002048370400154B002B08BF134B3B
S3150000036C9D46A3F5803A00218B460F461348144A46
S3150000037C121A38F0AAFE0F4B002B00D098470E4BE2
S3150000038C002B00D098470020002104000D000D48DA
S3150000039C002802D00C48AFF3008038F067FE20002E
S315000003AC29001AF057F838F04DFE00BF000008007F
S315000003BCE01A00200000000000000000D8210020F8
S315000003CC04530020000000000000000030B585B08A
S315000003DC044613490120012506F0B0F800950DF1ED
S315000003EC0F0300220621204602F0B6FF50B99DF8F5
S315000003FC0F404CB10B49284606F0A0F80A4B4FF4B7
S3150000040C00721A6005B030BD0849284606F096F809
S3150000041C20460CF09FF8204607F054FDF2E700BF8B
S3150000042C6F950300A19503006CA00046AB950300E5
S3150000043C2DE9F0415C4D5D4988B00120002406F0A1
S3150000044C7DF82C7001F02AFB022807D047F23051B8
S3150000045C28462CF0F9F808B0BDE8F0810DF11E0322
S3150000046C03930DF11A0302930DF11903019306ABD5
S3150000047C00930DF116020DF117030DF1150107A8E6
S3150000048CADF81C408DF815408DF816408DF81740C8
S3150000049C8DF818408DF819408DF81A40ADF81E40AD
S315000004AC07F01EFE9DF81A109DF8193000919DF864
S315000004BC18203F49012006F041F89DF8183033B951
S315000004CC9DF8192012B94CF25031C1E71C46394D32
S315000004DC394F2E4605EBC4039DF818201979914225
S315000004EC1ED1D9789DF81920914219D1DA884FF688
S315000004FCFE7100238A4203D037F8130090424BD189
S3150000050C08AB36F8342003F8052D2022009208217A
S3150000051C0022012002F0BDFE9DF81B0007F0D2FC64
S3150000052C0134102CD6D1254EDFF88C8000243746AA
S3150000053CC4EBC405AB199DF81820D978914224D187
S3150000054C99789DF8192091421FD1B3F805204FF6E2
S3150000055CFE7100238A4203D038F8130090421FD153
S3150000056C7A5D08AB003218BF012203F8052D102264
S3150000057C009206210022012002F08BFE7B5D012BEE
S3150000058C0CBF6420002007F09DFC0134102CCFD149
S3150000059C42F2107104485CE70133322BAAD1BFE753
S315000005AC0133322BD6D1F0E71C340020BD96030064
S315000005BC5795030098330020FC3700206038002044
S315000005CC37B5294CD4E90023501C43F10001274BC5
S315000005DC0022C4E900011A7001F060FA02282546CF
S315000005EC2BD0D4E900232249012005F0A7FFD4E93A
S315000005FC0023002B08BF012A07D101201D4905F055
S3150000060C9DFF4FF07E6038F073FD14F045FF1A49DC
S3150000061C00901A4B1A4A012005F090FF44F620610F
S3150000062C12482CF011F801F035FA16490246012051
S3150000063C03B0BDE8304005F081BFD4E900230021AA
S3150000064C02F0010050EA010301D006F097FF0322E5
S3150000065C0023D5E9000138F075FB134301D106F0F0
S3150000066CC5FF4CF25031DBE7F82100203434002072
S3150000067C73960300839603009596030051090400B4
S3150000068C90960300A996030008B507F0CBFB094B1F
S3150000069C09486422DA662BF0CBFF4FF47A710748CF
S315000006AC2BF0D2FF41F288310548BDE808402BF00B
S315000006BCCBBF00BF008401402C3400203434002012
S315000006CC1C34002030B52B4B2B4D00241C702B7882
S315000006DC85B001332B7001F0E1F902282AD107F01D
S315000006EC3BF807F0B7F807F02FF9202300932246C2
S315000006FC0DF10E03082101208DF80E408DF80F40E8
S3150000070C02F0C7FD1D490246012005F017FF102314
S3150000071C009322460DF10F030621012002F0B9FDCC
S3150000072C17490246012005F009FF204607F0CAFBCF
S3150000073C05B030BD2B78DB075FBF124B4FF4007250
S3150000074C1A60642048BF204607F0BCFB0E49012006
S3150000075C05F0F4FE4FF47A7106482BF075FF14F091
S3150000076C9BFE0A4B00900A4A0A49012005F0E6FE58
S3150000077CDEE700BF2C340020F4210020B0930300E8
S3150000078CCF9303006CA00046ED93030051090400BF
S3150000079C90960300959603002DE9F041304B3149B4
S315000007AC314D324F324E0024A6B01C70314B7022A4
S315000007BC0AA89B6838F07EFC0AA807F067F9A846D9
S315000007CCC4EBC40343443946B3F80520012005F0B5
S315000007DCB5FE69780191A978EB782A790091012008
S315000007EC314605F0ABFE013415F8072B22490120E2
S315000007FC05F0A4FE102CE3D12049012005F09EFE45
S3150000080C07F066FB0DF1260303930DF12303029308
S3150000081C0DF1220301930DF1210300930DF11F023B
S3150000082C08AB0DF11E0109A807F05AFC9DF8231020
S3150000083C04919DF8221003919DF8211002919DF8C8
S3150000084C201001919DF81F1000919DF81E30BDF8E7
S3150000085C24200B49012005F071FE26B0BDE8F0817D
S3150000086C243400204093030060380020C895030010
S3150000087CD595030000200440FE9503000A9603005C
S3150000088C31960300912808B504D100200BF062FEC6
S3150000089C002008BD9028FBD100200BF049FEF7E79D
S315000008AC07B5054B0090054A0549012005F046FEA3
S315000008BC03B05DF804FB00BF270B04009096030001
S315000008CC9596030007B500230093044A044B05498B
S315000008DC012005F033FE03B05DF804FBB795030069
S315000008EC270B040095960300FFF770BD09B9FFF7B7
S315000008FC6DBD70472DE9F0410C468AB0002940F0D9
S3150000090C94804B494B4D4C4F4C4E012005F016FE36
S3150000091CA846C4EBC40343443946B3F8052001206A
S3150000092C05F00CFE6978EB782A790191A97800918B
S3150000093C0120314605F002FE013415F8072B40491B
S3150000094C012005F0FBFD102CE3D13E493E4CDFF8AF
S3150000095CE8803A4F012005F0F1FD0025264606EB0E
S3150000096CC5034146DA88012005F0E8FDA178237914
S3150000097C62790191E17800910120394605F0DEFD9E
S3150000098C36F835202E490120013505F0D7FD102DFE
S3150000099C04F10804E3D12D492D4E274D012005F015
S315000009ACCDFD002436F8142029460120013405F02B
S315000009BCC5FD322CF6D1274B9B6807F089FA0DF151
S315000009CC260303930DF1230302930DF122030193E6
S315000009DC0DF1210300930DF11F0208AB0DF11E0161
S315000009EC09A807F07DFB9DF8231004919DF82210B1
S315000009FC03919DF8211002919DF8201001919DF80C
S31500000A0C1F109DF81E30BDF82420009101201249BC
S31500000A1C05F094FD01F042F8022806D12EF080FF75
S31500000A2C0E490246012005F089FD0AB0BDE8F081A9
S31500000A3CF893030060380020C8950300D595030091
S31500000A4CFE950300099403009833002011940300CB
S31500000A5CFC37002000200440519603001794030035
S31500000A6C2DE9F34104461849184F194E012005F09B
S31500000A7C65FD204607F00AF8164C0025A046C5EB86
S31500000A8CC50343443946B3F80520012005F056FD4D
S31500000A9C6178E37822790191A178009101203146A1
S31500000AAC05F04CFD013514F8072B0B49012005F018
S31500000ABC45FD102DE3D10449012005F03FFD012031
S31500000ACC02B0BDE8F08100BF0A960300C89503008A
S31500000ADCD595030060380020FE95030010B5054936
S31500000AEC0446012005F02AFD204607F01FF80120D8
S31500000AFC10BD00BF4D9403002DE9F34781462349F1
S31500000B0C234DDFF8A4A0012005F018FD0024A8460B
S31500000B1C35F814201AB35146012005F00FFD35F8AF
S31500000B2C14301C4E0093032204211B4B012003F0AE
S31500000B3C99FF1A4B37685B883B80002001F0BEFD9D
S31500000B4C3368387101265E7100F0A4FF014600205F
S31500000B5C04F006F812490246304605F0EFFC013463
S31500000B6C322CD5D1484607F033F806F077FD0D4DFB
S31500000B7C002438F8142029460120013405F0DEFC47
S31500000B8C322CF6D1012002B0BDE8F0877694030032
S31500000B9CFC370020542200203DB90300E439002024
S31500000BACAC940300CF94030095940300F0B52D4943
S31500000BBC8BB00546012005F0C1FC2B48002442F2FF
S31500000BCC107104702BF040FD294608A807F054F864
S31500000BDC9DF820709DF821609DF822509DF82330D9
S31500000BEC9DF824200095CDE901672049012005F0E8
S31500000BFCA5FC2346224621462046CDE90274CDE9C2
S31500000C0C0056ADF81C408DF816408DF817408DF83F
S31500000C1C18408DF819508DF81A608DF81B70ADF8C8
S31500000C2C1E4007F02BFA0DF11E0303930DF11B0367
S31500000C3C02930DF11A0301930DF1190300930DF1B3
S31500000C4C170206AB0DF1160107A807F049FA009733
S31500000C5C33462A460649012005F070FC01200BB0EC
S31500000C6CF0BD00BF1D9503001C3400204595030004
S31500000C7C5795030010B506490446012005F05EFCA5
S31500000C8C044B20461C8007F01DF9012010BD00BF47
S31500000C9C2C9403001834002001207047024610B52E
S31500000CAC08490446012005F049FC074B07491A7808
S31500000CBC00239A4201DC012010BDE05C585401333C
S31500000CCCF7E700BFFA940300E81A002090330020DF
S31500000CDC70B50646104614460D4604F0F1FF002387
S31500000CEC33702046A847BDE8704004F0D8BF00001A
S31500000CFC012202490248FFF7EBBF00BFB1360100E3
S31500000D0CF8380020012202490248FFF7E1BF00BF74
S31500000D1C13B00100E8380020012202490248FFF70F
S31500000D2CD7BF00BF65410100D83800200122024917
S31500000D3C0248FFF7CDBF00BF3D640100003900201B
S31500000D4C022202490248FFF7C3BF00BFB1360100B9
S31500000D5CF0380020022202490248FFF7B9BF00BF53
S31500000D6C13B00100E0380020022202490248FFF7C6
S31500000D7CAFBF00BF65410100D038002001220249F7
S31500000D8C0248FFF7A5BF00BF2DAF01000C390020AC
S31500000D9C022202490248FFF79BBF00BF2DAF01009C
S31500000DAC14390020F22202490248FFF791BF00BF16
S31500000DBC2DAF01001C39002008B501202BF064FD75
S31500000DCC02482BF0D7FC024B187008BDD0960300D6
S31500000DDC0839002008B504F055FD012805D0034B51
S31500000DEC1878BDE808402BF0A9BC08BD08390020CE
S31500000DFC10B50C1E03D12BF01BFC002010BD02DB22
S31500000E0C2BF022FCF9E70220F8E7B1F5000F02D22D
S31500000E1C0902FFF7EDBF0220704700002DE9F041F3
S31500000E2C9846154B154F1B8800264FF00C0CF4B248
S31500000E3C9C4202D30220BDE8F0810CFB04F57C1920
S31500000E4C7D5D854205D165888D4202D12579954215
S31500000E5C01D00136EBE701F05DFB0028EAD04146F4
S31500000E6CA068FFF7C5FF0028E4D19DF81830637120
S31500000E7C9DF81C30A371DEE7401B0020EC1A002005
S31500000E8C13B59DF81040CDE9003413460122FFF747
S31500000E9CC5FF02B010BD13B59DF81040CDE9003466
S31500000EAC13460022FFF7BAFF02B010BD07B50023A8
S31500000EBC0093FFF7F0FF03B05DF804FB0E4BF0B5A3
S31500000ECC1F880E4E00254FF00C0CEBB2BB4201D323
S31500000EDC0220F0BD0CFB03F3F418F35C834205D13E
S31500000EEC63888B4202D12379934201D00135ECE71A
S31500000EFCA36800201870ECE7401B0020EC1A0020B9
S31500000F0C0122FFF7DBBF0022FFF7D8BF2DE9F04F18
S31500000F1C1E4693B0FF23022E0746884614461C9D98
S31500000F2C9DF874A08DF81E3040F2CA802B785A07B3
S31500000F3C2DD5042E40F2C48095F804B0654A0023E2
S31500000F4C02EBC3015FFA83F90979FF2908D0013353
S31500000F5C0A2BF5D1209B002B40F0B6804FF0FF09F1
S31500000F6C002308AA0DF11F0120798DF81F3003F01C
S31500000F7C1CFC78B1BDF82C3023809DF81F0004F0C2
S31500000F8C87FE8DF81D00C8B113B0BDE8F08F95F83B
S31500000F9C02B0D3E7207901F0D9FAFF28059000F0CA
S31500000FAC9180207904F08CFE8DF81D000028EBD181
S31500000FBC059B494800EB03104388238061882388EE
S31500000FCC4FF6FF72002F08BF4246CDE90012584675
S31500000FDC5246002107F024FB18B1E38843F02003A6
S31500000FECE380209B0F950DF11D010DA8CDE90D3465
S31500000FFCADF84080ADF842608DF844708DF845A090
S3150000100C03F025FC10B19DF81D00BDE7284607F03E
S3150000101C5FFAA01D07F04AFA22464146384607F009
S3150000102C0FFC80B2B0422DD39DF87C300393BDF8F3
S3150000103C783002930DF11E03CDE900532246F3B22C
S3150000104C4146384600F0BFFE8DF81D00209A9DF8EB
S3150000105C1D304AB3D3BB9DF81E20FF2A09D0B9F127
S3150000106C090F06D81B4B03EBC9010A71209A43F8EA
S3150000107C39209DF81D3013B9112003F074FB04F0D0
S3150000108C0EFEC0E7BAF1000F0AD10DF11E03CDE931
S3150000109C006322462B464146384610F0C9FBD3E77F
S315000010AC74238DF81D30D1E7BA2BE2D1E388DB0629
S315000010BCDFD5002301208DF81D3004F0E9FBD8E7BD
S315000010CC012061E7A3205FE7B4205DE7BA2BEDD0E2
S315000010DCD5E700BF00220020E43900200023054A92
S315000010EC10B51946FF24D018047199500833502BAB
S315000010FCF9D110BD0022002010B586B008810A9CDB
S3150000110C04949DF824400394BDF8204002940124D5
S3150000111CCDE9003413460A4601460420FFF7F6FED5
S3150000112C06B010BD10B586B00881089C0494002446
S3150000113CCDE902440124CDE9003413460A460146A2
S3150000114C0320FFF7E3FE06B010BD13B50024009490
S3150000115CFFF7E8FF02B010BD2DE9FF410F469046A0
S3150000116C054688B381B37AB300266946F0B221F0FE
S3150000117C85FF044630B99DF80030032B06D00136A6
S3150000118C032EF2D1204604B0BDE8F0819DF8012073
S3150000119C2B799A42F3D1BDF802206B889A42EED194
S315000011AC9DF806309DF8050000EB032080B29DF8F3
S315000011BC04306B71288143463A462946FFF7C5FF32
S315000011CC0028DCD00446DDE70224DBE710B586B048
S315000011DC089C04940024CDE902440124CDE9003492
S315000011EC13460A4601460620FFF790FE06B010BDD0
S315000011FC10B586B00A9C04949DF824400394BDF85F
S3150000120C204002940124CDE9003413460A460146D7
S3150000121C0520FFF77BFE06B010BD13B50024009425
S3150000122CFFF7D4FF02B010BDF0B502288BB005460F
S3150000123C0E4614461F460AD106A9F0B221F01EFF2F
S3150000124C98B99DF8193023719DF81C306371119B68
S3150000125C04930022109B0192CDE9022200932246B0
S3150000126C3B4631462846FFF751FE0BB0F0BD13B591
S3150000127C00240194049C0094FFF7D6FF02B010BD25
S3150000128C2DE9F04306468BB00F469046994600254D
S3150000129C06A9E8B221F0F2FE044630B99DF81830E2
S315000012AC012B06D00135032DF2D120460BB0BDE83B
S315000012BCF0839DF8192033799A42F3D1BDF81A20A0
S315000012CC73889A42EED19DF81C307371CDE90309EF
S315000012DCCDE90100CDF800803B463246A9B202208A
S315000012ECFFF714FE0028DDD00446DEE7F0B587B024
S315000012FC074614460E461622002168461D4604F083
S3150000130CEBFBADF80C70ADF80A40F6B1082231468D
S3150000131C0DF1010004F084FBBDF8143043F0020318
S3150000132CADF8143000238DF80030BDF83430ADF82C
S3150000133C0E300F9ABDF83030BDF83810ADF81030BD
S3150000134C684612F02BFC07B0F0BD1DB1ADF812507B
S3150000135C0C23E8E74FF6FB739C428CBF0824002451
S3150000136C8DF80040E1E7000007B5094A03461088EE
S3150000137C31B9084A084903B05DF804EB05F0FAB830
S3150000138C0091064A064905F0F5F803B05DF804FB32
S3150000139CF2220020EAD803008A9D03008ED90300AE
S315000013AC919D03007FB505460E462CF041FD2A465D
S315000013BC044603460C49022005F0C0F88CB986B1E8
S315000013CC01238DF80E3003230093224603AB3621FE
S315000013DC4FF6FC708DF80C408DF80D5008F0D4FDCE
S315000013EC0446204604B070BD739D0300FF2810B55B
S315000013FC0C4604D10220044905F0A0F8FE20214633
S3150000140CBDE81040FFF7CEBF309F0300F8B51F466E
S3150000141C0B8806460D461446002B63D14A881104E8
S3150000142C48BF63783049042005F088F86B8848F289
S3150000143C0402934232D00FD848F2010293423ED0B6
S3150000144C48F20202934242D0132B0ED1A278637853
S3150000145C264903EB022223E048F20602934223D0EC
S3150000146C32D348F22002934226D03B4622462946E6
S3150000147C304600F002FE40B96A8848F221039A42CF
S3150000148C03D16178304603F09CF96B88B3F5004FB5
S3150000149C02D9082003F0EAF9012024E0144A154980
S315000014AC042005F04BF8E0E7134A1249042005F036
S315000014BC61F822791149F3E762781149F0E711498D
S315000014CC042005F03BF8D0E722790F49E8E70F4AEC
S315000014DC0849042005F04EF8A27863780C4903EB12
S315000014EC0222DDE70020F8BD9E9D0300149E03003A
S315000014FCC39D0300CA9D0300DB9D0300E19D030011
S3150000150CEF9D03002B9E0300459E0300679E030080
S3150000151C6C9E03002DE9F04188B006460C469046B9
S3150000152C1F4631F019FC0EAB0546009302460FAB75
S3150000153C2146304610F018FAB8BB0F9B0493BDF841
S3150000154C3830ADF814308DF808600394ADF81650A9
S3150000155C8DF818808DF8197000F0A4FA8DF81A0021
S3150000156C00F0A2FA8DF81B0026F0A7F98DF81C00E6
S3150000157C02A803F06AF9C0B9BDF838300F9A2146B3
S3150000158C284605F02DFE80B9BDF838300F9A214655
S3150000159C2846FFF73BFF40B9CDE90050BDF838307F
S315000015AC0F9A3146204607F061F808B0BDE8F08185
S315000015BC2DE9F04F85B0804689461446BDF8386053
S315000015CC0F9D9DF840B01F46002B2CD0434A444932
S315000015DC022004F0CFFF2388002B70D040F20912B2
S315000015EC93426ED03F4A4049B3F5827F18BF0A46F4
S315000015FC6188009101963D49022004F0BBFF2388C7
S3150000160C6BB1022E0BD92B7839493A4A13F0010FDC
S3150000161C18BF0A46AB783849022004F0ABFF3749AD
S3150000162C022004F08BFF364A0023114602EBC3005E
S3150000163C0079584547D152F833A0002301EBC30279
S3150000164C1079584545D1FF201071002241F83320FE
S3150000165C47B9238833B9B4F90230002B02DB0820D2
S3150000166C03F081F8012003F001F99DB12878C30736
S3150000167C10D510F0040004D032460121284604F09F
S3150000168CD5FACDE9017000953346224649464046C7
S3150000169C01F009FBBAF1000F06D0CDE9005733462D
S315000016AC224649464046D04733462246494640469E
S315000016BCCDE90E5705B0BDE8F04F03F07EB8114AE0
S315000016CC96E7114A94E701330A2BAFD14FF0000A83
S315000016DCB3E701330A2BB1D1BAE700BFF89C03007C
S315000016EC009D0300E69C03004D9D03000A9D03002C
S315000016FCE99C0300F19C0300399D0300CBBF03005A
S3150000170C00220020DF9C0300E39C030070B49DF8CC
S3150000171C10409DF81460BDF80C500395CDE90436C5
S3150000172C234670BCFFF744BF962813B504463ED03B
S3150000173C37D8912846D0942839D0902814D100F067
S3150000174CA9F9264B0090264A2649022004F0F6FEFB
S3150000175CBC2C32D12449022004F0F0FE03F07FF8B1
S3150000176C03F07EF803F07CF8204619F00DFA2046BB
S3150000177C11F0A0FB204616F0C9FC204614F0C4FD5F
S3150000178C204613F093F9204613F018FE2046FFF777
S3150000179C79F800B31549022002B0BDE8104004F0F8
S315000017ACCDBEAF2807D8AB280AD29828DCD1104B6F
S315000017BC0B4A104909E0BC28C0E733F057FDD1E7C6
S315000017CC9128F4D1054B064A0B49022004F0B6FECB
S315000017DC06F0ADFDC8E702B010BD00BF7D9E03004C
S315000017EC869E03008D9E03009A9E0300D29E0300E4
S315000017FCC19E0300C99E0300B89E030013B50F4C8F
S3150000180C002004F045FA23686BB101A800F038FB00
S3150000181C48B923681A789DF804309A4203D0012AF5
S3150000182C07D1022B05D1032301A8ADF804302DF006
S3150000183C81FA04F034FA02B010BD00BFEC2200208D
S3150000184C10B5044604F029FA204603F012F8BDE858
S3150000185C104004F024BA00000D4B1B6837B5054642
S3150000186C9BB11C780289C37A0A490092012C0A4A58
S3150000187C4FF0010008BF022404F060FE2946204602
S3150000188C03B0BDE830402DF0F1B9702003B030BD87
S3150000189CEC220020149F03009096030010B504461A
S315000018AC00F0F0F8631E04F10F02002113F8010F8B
S315000018BCFF2808BF19709342F8D10023237410BD7A
S315000018CC7FB504AB03E9030000239DF80D509DF88A
S315000018DC0E6016491C46D8B201EBC0025268EAB932
S315000018EC9DF80C1000919DF80B309DF80A201049BC
S315000018FC022004F03FFE25B12A460E49022004F0D0
S3150000190C39FE0D4ABDF808300C49002C18BF22468A
S3150000191C022004B0BDE8704004F010BE11F830008F
S3150000192C0133B04208BF1446D5E700BF6C9F0300D5
S3150000193C509D0300619D03004C9D0300659D0300B3
S3150000194CFEF7D8BF10B50EF064FA012300224FF44F
S3150000195CE131202018F070F80AF080FB04460BF0F9
S3150000196C6DF8224603461249012004F0E7FD0AF001
S3150000197C7BFB04460BF070F8224603460D4901200A
S3150000198C04F0DCFD0AF06AFB012303FA00F040F2D6
S3150000199CA17318420BD0084C20780AF06BFB207808
S315000019AC0AF024FC2078BDE810400AF025BD10BDD5
S315000019BCA0A00300B6A00300ED1B002037B5002243
S315000019CC114601A802F0F6FE002847D12AF04EFC7B
S315000019DC034640B12349244A012004F0AFFDAA2155
S315000019EC22480AF021F904F049F9FFF777FB00F0D9
S315000019FC75FB00F02DFB0221084605F0FDF8FFF7FC
S31500001A0CFDFE03F0A7F91A4B1A4C1B4D41F20202CC
S31500001A1C1A801A4AFF231380194A4FF40040138088
S31500001A2C26F07CFD0AF0D8FE2AF0CAFC03F02AFF49
S31500001A3C012801D000F015FB18F050F8FFF7CAF991
S31500001A4C2021002003F0B8FB28B1224629464FF688
S31500001A5CFF7004F08FFD04F024F9E3E7019803B05E
S31500001A6C30BD00BF08A00300F89C030019A00300BA
S31500001A7C6A21002091A003009CA003006C21002089
S31500001A8C6E210020024910237F2209880AF0EABD44
S31500001A9CDEE903002AF062BD2AF06CBD2AF028BBF1
S31500001AAC2AF0AEBB31F082BC1FB5684631F062F944
S31500001ABCC8B902A933F028F9082269460DEB0200D1
S31500001ACC04F011F810B9002004B010BD02A90120D1
S31500001ADC33F01AF9082269460DEB020004F003F8FC
S31500001AEC90B90120F0E731F037F94FF6FF739842C1
S31500001AFC044609D0002033F01FF98442E3D00120BC
S31500001B0C33F01AF98442ECD0FF20DDE738B50546F0
S31500001B1C04F0D6F8044698B94FF4A8532A46094956
S31500001B2C042004F00BFD4FF4A851284608F09EF94A
S31500001B3C054902460446042004F000FD04F0AFF803
S31500001B4C204638BDD6A00300E2A003007FB50546AB
S31500001B5C04F0A3F82AF002FD40B16B88B3F5006FD0
S31500001B6C04D1681D02F02BFE044616E0284602F04E
S31500001B7C7BFED8B90446E6B26946304621F07EFAB9
S31500001B8C80B99DF800306BB92946304621F0DCFA55
S31500001B9C0028E9D075280BD08C2404F080F8204658
S31500001BAC04B070BD0134032CE5D1F5E78D24F4E7C0
S31500001BBC8B24F2E738B5054604F06FF8284602F098
S31500001BCC51FE98B9284621F08DFA68B175280CBFDC
S31500001BDC8B24882423462A460549042004F0AEFCAF
S31500001BEC04F05DF8204638BD0446F3E78D24F7E78C
S31500001BFCECA0030037B502A9FF2301F8013D04460A
S31500001C0C02F0CFFD18B19DF8070003B030BD094BAB
S31500001C1C03EB04131D7B25F052FE854201D0FF20F9
S31500001C2CF3E7204600F0B4FA0028F8D0204600F07E
S31500001C3C45FDEAE7E43900202DE9F04107460D465B
S31500001C4C02F0B1FD0646F0B9384600F07FFCFF28DD
S31500001C5C19D00E4C04EB001494F80C8025F02FFED2
S31500001C6C804510D163882B80A3886B80A3792B7158
S31500001C7C0121384600F028FD31466871384600F0DF
S31500001C8C23FD0126A8713046BDE8F081E439002019
S31500001C9CF8B504460E46154600F058FCFF2802D14E
S31500001CAC4FF6FF70F8BD0B4B03EB0010077B25F0CE
S31500001CBC06FE8742F4D146B901222946204600F099
S31500001CCC29FD0028ECD00088ECE7012EE8D1002293
S31500001CDCF3E700BFE439002010B5044603F0DDFF3E
S31500001CEC2046FFF721FDBDE8104003F0D8BF0000E9
S31500001CFC37B50C4B1B681C5C94420D460AD90092F6
S31500001D0C2346094A0949022004F018FC00242046FF
S31500001D1C03B030BD002201460092234628462AF025
S31500001D2CE5FFF4E7681C0020F89C0300F09F030015
S31500001D3CF0B599B0144603AD0F46064603F0ADFF59
S31500001D4C204652222946FFF7D3FF84B28CB10DF1FF
S31500001D5C0A0030F0F1FF0DF10B0030F0F5FF9DF9A4
S31500001D6C0B309DF80A20CDE9004539463046FFF781
S31500001D7CD1FB03F094FF19B0F0BD2DE9F0439BB0F5
S31500001D8C14469DF88850894680461F4603F085FF09
S31500001D9C294620460FF0A8FD80B905AE52223146E1
S31500001DAC3846FFF7A5FF48B180B20090CDE9016730
S31500001DBC2B46224649464046FFF7FAFB03F06FFFD7
S31500001DCC1BB0BDE8F0832DE9F74307460E460A988B
S31500001DDCBDF830809DF83490194615462AF0AEFFB2
S31500001DECFF2804463AD00B9B1870062F34D8DFE830
S31500001DFC07F0040404121929220003462A46314628
S31500001E0C384631F00FFA054620462AF03BFE2846A6
S31500001E1C03B0BDE8F0830C2203461146284631F088
S31500001E2CD3F9F0E7EA7A0346CDE90089114628464C
S31500001E3C31F08CF9E7E703460C222946304631F09F
S31500001E4C2BF9E0E70190EB7A00934A462B46314694
S31500001E5C404631F045F9D6E70225D5E71825D6E7F1
S31500001E6C0822014903F0DCBD0552002010B50446DA
S31500001E7C08462AF051F92046BDE810402CF056B918
S31500001E8C2CF054B90520704700207047032070478A
S31500001E9C014B1878704700BF801C00204B20704700
S31500001EAC024B18685968FFF70BBD00BF6E3604006D
S31500001EBC13B5044603F0F1FE0DF1060030F03CFFBD
S31500001ECC0DF1070030F040FF9DF907209DF8061034
S31500001EDC20460FF009FA30B99DF907209DF8061037
S31500001EEC204616F055FE03F0DAFE02B010BD38B5EA
S31500001EFC04460D4603F0D1FE294620460FF03EFB64
S31500001F0C18B92946204616F053FEBDE8384003F0B2
S31500001F1CC6BE38B504460D4603F0BFFE294620461C
S31500001F2C0FF04CFA18B92946204616F01FFEBDE8EC
S31500001F3C384003F0B4BE38B504460D4603F0ADFE8A
S31500001F4C294620460FF062FA18B92946204602F0B7
S31500001F5C98FCBDE8384003F0A2BE704700F099B873
S31500001F6C70470000014B187000207047502200206B
S31500001F7C2DE9F341224B01931646044640B13AB182
S31500001F8C002301AA9D5C8D4233D00133042BF9D179
S31500001F9C022002B0BDE8F081E35C93FAA3F301469C
S31500001FAC180E03F061FC434603F10108DBB2BB4299
S31500001FBCF2DBC2B292FAA2F2C0F30F2393FAA3F3A6
S31500001FCC100E1B0E03EB00236219DB439BB212F8B7
S31500001FDC020CD9B2884211D112F8012CB2EB132F94
S31500001FEC0CD132462146284602B0BDE8F04124F019
S31500001FFCF7BC00234FF6FF708F1ED5E7BD20C8E750
S3150000200C080A0E122DE9F041984686B00F4B15467C
S3150000201C064603A80F461C7822F012FF15F0FD0F9A
S3150000202C12D030B9BDF80C309B0702D5032D08BF72
S3150000203C0324304600942B464246394602F01FFCD8
S3150000204C204606B0BDE8F0810324F2E750220020BA
S3150000205C08B5FEF719FB06F037F9BDE8084012F093
S3150000206C23BD08B502F0A8FB06F060F9BDE80840F0
S3150000207C11F0C0BA704702F0E6BB02F0EABB30B40E
S3150000208CBDF80840BDF80C50CDE9024530BC10F047
S3150000209C37BB38B504460D4602F0F6FB29462046FA
S315000020AC12F01EFD29462046BDE8384018F004BA49
S315000020BC02F0D1BB02F0DBBB10B5074A0123332B70
S315000020CC194601D1002006E00233D41814F8034C4B
S315000020DC8442F4D1505C10BD02A10300F0B589B066
S315000020EC40F20123ADF80030F2234FF480728DF8E4
S315000020FC02301F4B0493ADF808204AF2E01302227B
S3150000210CADF814308DF80A201A4B1B4A069303219E
S3150000211C6123ADF81C3011700023184A184DADF828
S3150000212C04308DF80630ADF80C308DF80E300DF10C
S3150000213C100E0DF1180C01AF02AE03AC01201DF808
S3150000214C031011703EF8131051803CF81310918057
S3150000215CD95D9171F15C507305EBC1019160195D0C
S3150000216C11730133032B02F11002E8D109B0F0BD53
S3150000217C0401040101010D0151220020E439002063
S3150000218C4CA90300014B1878704700BF5122002060
S3150000219C034B03EB0010407B00F00100704700BFBF
S315000021ACE4390020413803288CBF002001207047F9
S315000021BC413801288CBF0020012070474338012884
S315000021CC8CBF0020012070470A4B0B4A10B5C31A6E
S315000021DC0A489B10584380B200239C5A844202EB57
S315000021EC030101D1488810BD0433202BF5D1002002
S315000021FCF9E700BF9CA1030034A10300ABAAAAAA6D
S3150000220C054BC31A05489B10584380B2072841F268
S3150000221CA20018BF0020704710A60300CDCCCCCC72
S3150000222C0388B3F57C4F01D3FFF7EABF0846FFF7E7
S3150000223CCBBF10B54A880488A2420DD1037B0C791A
S3150000224C234009D0B2F57C4F08D3FFF7D9FF0B8991
S3150000225C1B1A5842584110BD0020FCE70120FAE732
S3150000226C38B514460D88D28895420AD10388B3F541
S3150000227C7C4F08D2FFF7D4FF23891B1A58425841CA
S3150000228C38BD0020FCE70120FAE700002DE9F04FED
S3150000229C8BB04FF0000A01939DF850300593714BAB
S315000022ACDFF8D0911B780491804615460893574663
S315000022BC089A5FFA8AF39A4201D8862063E099F865
S315000022CC00300293D9F808300393029A98F800303C
S315000022DC934240F0BF8099F80D30D80709D5039B7F
S315000022EC1B7907934FF0000B079A5FFA8BF39A4210
S315000022FC04D80AF1010A09F11009D9E7039B1E68F3
S3150000230C142303FB0B6641463046FFF792FF002869
S3150000231C00F09C8033890693002306999AB2914269
S3150000232C02D80BF1010BDFE7746809930C2202FB50
S3150000233C0344214642463046FFF792FF2279099B19
S3150000234C00287BD0049B03B11C6091061ED4464822
S3150000235C09E01A79920642BFD8783F18BFB20C33FF
S3150000236C9C42F6D84148059B074493B1214630461A
S3150000237CFFF756FF2388B8F802100246029802F0BF
S3150000238CF7F960BB7E200BB0BDE8F08F0027384B09
S3150000239CE6E7002D35D021463046FFF741FF23886E
S315000023ACB8F802100246029802F0E0F90028E9D0CB
S315000023BCDFF8C49028462379DB0615D5214630462E
S315000023CCFFF72EFF98F80060B8F802101495034634
S315000023DC22463046CC460BB0BDE8F04F6047384637
S315000023ECDFF898902F46E6E7019AA3785AB9E27877
S315000023FCA3F14101012908D8013AD2B2394606F0B7
S3150000240C59FA0020BFE7019AF2E7433B012B05D8A6
S3150000241C023A92B2394606F067FAF2E7059B2BB9F7
S3150000242C019B1BB1E37801998B4218D8394617B931
S3150000243C03F052FBE5E703F0F3FAE2E712F0300F94
S3150000244C02BFE0783F18BFB2013366E770890744D4
S3150000245CBFB266E7039BD8880744BFB249E7892019
S3150000246C91E700BF51220020143A002024390020A5
S3150000247C9CA10300E43900209B4700009F47000005
S3150000248C10B586B000248DF81030BDF820308DF8CC
S3150000249C0C00ADF80E10ADF81220ADF81430009407
S315000024AC2346224602A903A80294FFF7EFFE0298E0
S315000024BC06B010BD2DE9F84390F8048006461F4679
S315000024CC00254FF01409EBB2984501D8002416E00C
S315000024DC09FB05F033681C181B5A8B4217D12AB11D
S315000024EC802A0FD194F90C00002810DAB3F57C4F32
S315000024FC05D32046FFF784FEB84200D03FB92046EC
S3150000250CBDE8F883402A02D1207B4006EED4013583
S3150000251CD9E7000030B50B4B0B4A1C780023D9B217
S3150000252CA14201D3002030BD1946013302EB03153D
S3150000253C15F8105C8542F2D102EB0112507B00F0CB
S3150000254C0100F0E751220020E439002070B50A4B57
S3150000255C0A491D780023DAB2AA4202D3FF2210469A
S3150000256C70BD1C016618645C844202D1747BE4075E
S3150000257CF5D40133EFE700BF51220020E4390020E7
S3150000258C2DE9F0410D4616461F46FFF7DFFFFF28E3
S3150000259C0AD0074C04EB00103B46324629468068AD
S315000025ACBDE8F041FFF786BF0020BDE8F08100BF13
S315000025BCE439002008B513460022FFF7E1FF00308E
S315000025CC18BF012008BD08B513464022FFF7D8FFF7
S315000025DC003018BF012008BD08B513468022FFF74E
S315000025ECCFFF003018BF012008BD08B540220023DC
S315000025FCFFF7C6FF003018BF012008BD30B5094BE8
S3150000260C094C19780023DAB28A4201D3FF2206E07C
S3150000261C013304EB031515F8105C8542F3D1104613
S3150000262C30BD00BF51220020E43900202DE9F041D5
S3150000263C0D4616461F46FFF7E1FF054C04EB00104E
S3150000264C3B46324629468068BDE8F041FFF732BF6B
S3150000265CE43900202DE9F84F0746884691469A46FC
S3150000266CFFF78EFFE0B10F4BDFF83CB01E7800256C
S3150000267C2C46EBB2B34202D32046BDE8F88F0135A7
S3150000268C0BEB051313F8100C8742F5D053464A464C
S3150000269C4146FFF7CBFF002818BF0134E4B2E8E748
S315000026ACFF24E9E751220020E4390020134640229A
S315000026BCFFF7D0BF0022FFF7F9BF0000014B000166
S315000026CC185C7047E439002070B50D46FFF73EFFE5
S315000026DCFF2818D00E4B03EB001082689AB100232A
S315000026EC117918461426DCB2A14200D870BD1468C4
S315000026FC06FB0344247B45B114F0400F1CBF01308C
S3150000270CC0B20133EFE70020F0E714F0800FF5E7D5
S3150000271CE43900202DE9F0410F469046FFF716FFED
S3150000272CFF280BD0104B03EB00100023856829798A
S3150000273C1C464FF0140CDAB2914202D80020BDE8C8
S3150000274CF08128680CFB0300067BB8F1000F08D05B
S3150000275C16F0400F03D0BC42F1D00134E4B2013381
S3150000276CE9E716F0800FF5E7E4390020F0B585B0FF
S3150000277C054625F0A2F80646012003F099FA012D2C
S3150000278C03D0FF2D5DD186425BD103AC01237F22A2
S3150000279C212120460AF0D2FA102300930022234668
S315000027AC0621012000F075FD01237F2222212046FF
S315000027BC0AF0C4FA3023009344F20302234606219E
S315000027CC012000F066FD202701237F2223212046CD
S315000027DC0AF0B4FA0097234600220821012000F0E3
S315000027EC58FD01237F22242120460AF0A7FA0097E0
S315000027FC23464FF480420821012000F04AFD212790
S3150000280C02237F22252120460AF098FA41F2A203E0
S3150000281C17224FF61041CDE90047012000F049FD83
S3150000282C02237F22262120460AF088FACDE90047AA
S3150000283C41F2A2034FF6FD724FF61041012000F053
S3150000284C38FD022003F034FA022D03D0FF2D58D1A7
S3150000285C864256D101237F22272103A80AF06EFA5D
S3150000286C10230093002203AB0621022000F011FD79
S3150000287C01237F22282103A80AF060FA3023009353
S3150000288C44F2030203AB0621022000F002FD2024D1
S3150000289C01237F22292103A80AF050FA009403ABE6
S315000028AC00220821022000F0F4FC01237F222A21B9
S315000028BC03A80AF043FA009403AB4FF480420821B4
S315000028CC022000F0E6FC212402237F222B2103A800
S315000028DC0AF034FA03AB07224FF44071009402203D
S315000028EC00F0D7FC02237F222C2103A80AF026FA3B
S315000028FC009403AB44F210024FF44071022000F036
S3150000290CC8FC05B0F0BD2DE9F3411C461B799B07AD
S3150000291C05460F4616462ED50DF104080222002157
S3150000292C404603F0D9F8002D08BF4546012F72D159
S3150000293C062E23D1238863B92046FFF745FC40B900
S3150000294C23795E0605D43B462A467F2121200AF0D0
S3150000295C0BFA228844F203039A420CD12046FFF765
S3150000296C33FC40B92379580605D401232A467F2126
S3150000297C22200AF0F9F902B0BDE8F081082E1FD129
S3150000298C238863B92046FFF71FFC40B92379590603
S3150000299C05D43B462A467F2123200AF0E5F92388F5
S315000029ACB3F5804FE7D12046FFF70EFC0028E2D1A5
S315000029BC23795A06DFD401232A467F212420D8E71F
S315000029CC4FF610439E42D6D12388172B0FD12046A3
S315000029DCFFF7FAFB41F2A203984208D123795B0672
S315000029EC05D402232A467F2125200AF0BDF9228828
S315000029FC4FF6FD739A42BED12046FFF7E5FB41F236
S31500002A0CA2039842B7D123795F06B4D402232A468F
S31500002A1C7F212620ADE7022FADD1062E20D12388AB
S31500002A2C63B92046FFF7D0FB40B923795E0605D47F
S31500002A3C01232A467F2127200AF096F9228844F2A0
S31500002A4C03039A4297D12046FFF7BEFB002892D18A
S31500002A5C23795C068FD401232A467F21282088E718
S31500002A6C082E22D1238863B92046FFF7ADFB40B967
S31500002A7C2379580605D401232A467F2129200AF0FA
S31500002A8C73F92388B3F5804F7FF475AF2046FFF7B3
S31500002A9C9BFB00287FF46FAF237959063FF56BAF8C
S31500002AAC01232A467F212A2063E7B6F5407F7FF46F
S31500002ABC62AF2388072B0CD12046FFF785FB40B964
S31500002ACC23795A0605D43B462A467F212B200AF049
S31500002ADC4BF9228844F210039A427FF44CAF2046FD
S31500002AECFFF772FB00287FF446AF23795B063FF5B0
S31500002AFC42AF02232A467F212C203AE72DE9F04FDC
S31500002B0C8BB08046039124F0D8FE444B04901B787E
S31500002B1C05930024059B9C4235D2B8F1FF0F0BD0D0
S31500002B2C4046FFF713FDFF28044631D03C4B4FF0CF
S31500002B3C000903EB041B1CE0394B049A03EB04134A
S31500002B4C1B7B9342F2D00134E4B2E3E71B681422F8
S31500002B5C02FB05352B89B3F5967F01D909F03CFEAE
S31500002B6C4FF0000A2A891FFA8AF39A4213D809F100
S31500002B7C0109DBF808301A795FFA89F5AA42E5D81B
S31500002B8CB8F1FF0FDFD0039B13B94046FFF7EEFDFC
S31500002B9C0BB0BDE8F08F0C221FFA8AF353436A6818
S31500002BACD7183E79F1062FD49BF800108DF81C101F
S31500002BBC2988ADF81E1016F0400F0CBF402180215D
S31500002BCC8DF82010D35AADF8223039462846FFF737
S31500002BDC27FB7207ADF82400FB7818D5022BBE68CC
S31500002BEC00D936680123009300231946324607A8FC
S31500002BFCFFF74CFB039B3BB13B46BDF81E209BF8F5
S31500002C0C00103046FFF77FFE0AF1010AAAE7022BF5
S31500002C1C94BF07F10806BE68E4E700BF5122002006
S31500002C2CE43900200021FFF769BF10B501210446E5
S31500002C3CFFF764FF2046BDE81040FFF71BBA10B53E
S31500002C4C047B14EA010310D0002201238B4203D328
S31500002C5C036953F8220010BD1C4218BF01324FEA1B
S31500002C6C430318BFD2B2DBB2F0E71846F3E7F8B568
S31500002C7C16461F469DF81820BDF81C300546FFF772
S31500002C8C7FFC78B10421FFF7DAFF044650B12846E1
S31500002C9C03F016F83A4631462846A047BDE8F840F8
S31500002CAC02F0FDBFF8BD2DE9F74F0C9D9DF834B031
S31500002CBC1F4681468A46BDF83830144612B30DB30A
S31500002CCC07B392F804802A78618812F0080F14BFB3
S31500002CDC402280224046FFF753FC98B10821FFF7AB
S31500002CECAEFF064670B1404602F0EAFFCDE9005B46
S31500002CFC3B46224651464846B04703B0BDE8F04F26
S31500002D0C02F0CDBF03B0BDE8F08FF8B5BDF8185092
S31500002D1C17461A462B460446FFF732FCE0B175B946
S31500002D2C0221FFF78CFF0546B0B1204602F0C8FF22
S31500002D3C39462046A847BDE8F84002F0B0BF10213E
S31500002D4CFFF77DFF064638B1204602F0B9FF2A464A
S31500002D5C39462046B047EEE7F8BD73B5BDF81840C6
S31500002D6C16461A4623460546FFF70AFCB8B1C4B9FF
S31500002D7C2021FFF764FF044670B1284602F0A0FF3D
S31500002D8C099B00939DF81C209DF82030314628465F
S31500002D9CA047044602F083FF204602B070BD86248D
S31500002DACFAE70024F8E72DE9F04186680446007836
S31500002DBC02F086FF002514273279EBB29A4203D82B
S31500002DCCBDE8F04102F06BBF7B4332682078D15AE4
S31500002DDC02EB030801F0CEFC01214046FFF72FFF62
S31500002DEC034608B1207898470135E5E770B5084DDC
S31500002DFC084E00242B78E0B2834200D870BD06EB57
S31500002E0C0010437BDB0701D5FFF7CDFF0134F1E75B
S31500002E1C51220020E43900202DE9F0411E4B0646D4
S31500002E2C1E480C4619780023DAB28A4203D30024D2
S31500002E3C2046BDE8F0815A1C00EB021515F8105C13
S31500002E4CB54201D01346EFE700EB0310437B03F0CA
S31500002E5C01022CB143F00103437342B10124E7E7AD
S31500002E6C4473002AFAD005464FF014080DE0FFF71C
S31500002E7C9AFFDDE71B6808FB04F41A19195B127B31
S31500002E8C3046D209FEF71AF83C46AB681A79671C2D
S31500002E9CE4B2A242EED8E1E751220020E439002048
S31500002EAC10B5094B094AC01AC0F38F0000239C5A6F
S31500002EBC844202EB030101D1488810BD04331C2B5C
S31500002ECCF5D10020F9E700BF64A7030054A1030065
S31500002EDC2DE9F04F85B00F469346BDF83820019288
S31500002EEC9DF840107C7D88B3ACB3012C18BF04242C
S31500002EFC9DF84480DFF88890002635461FFA88F83E
S31500002F0C36F80900584519D109EB060090F803E08C
S31500002F1C1EEA040F12D090F802A08A450ED31EF0BA
S31500002F2C100FFA7B19D04AB1CDE90231FFF7B8FF81
S31500002F3CB7F810C08445DDE9023110D00436B6F579
S31500002F4CAA7FDDD1012005B0BDE8F08F002C14BF9F
S31500002F5C04240824CCE70224CAE7002AEED1A845AB
S31500002F6C0BD0019AAA4208D903F805A00F9A10882B
S31500002F7C013501301080ADB2E0E70020E3E700BF79
S31500002F8C64A703002DE9F04F89B01D46BDF84840F3
S31500002F9C9DF850300193934623462A4607460E4623
S31500002FACFFF7EEFA8DF81470ADF816608DF8185020
S31500002FBCADF81AB0ADF81C40814618B9012009B01D
S31500002FCCBDE8F08F05A9FFF734F90028F6D09DF877
S31500002FDC4C3000259BB22E462F462C46029336E0EB
S31500002FEC0C231FFA85F8B9F8002003FB08F8D9F86A
S31500002FFC0430B2F57C4F03EB080A1AD333F80800F9
S3150000300C58452ED3029BA3422DD902F0B1FD9AF856
S3150000301C020002F099FD019B43B19AF8043013F0BB
S3150000302C010F0CBF0520072002F08EFD0134A4B25F
S3150000303C19E033F80820ADF81A20514605AA48467F
S3150000304C0393FFF70DF9039B0028D7D10135B9F887
S3150000305C0820ABB29A42C3D83C44A31B58425841F1
S3150000306CADE70137BFB20136B6B2EFE72DE9F04F47
S3150000307C8FB098469DF8703006930023BDF860908B
S3150000308C8DF82C00ADF82E10ADF8322000930546C5
S3150000309C0E46174608A91A460BA80893199C9DF8C4
S315000030AC68B09DF86CA08DF83080ADF83490FFF7C1
S315000030BCEDF8089B002B00F09880BAF1000F07D1B1
S315000030CC9A785A4540F094801A79D10740F193804A
S315000030DC1A79520735D59A685168926809910A92FD
S315000030EC987805F07DFC089B059093F803A0BAF13F
S315000030FC020F17D803465246214609A805F015FCBF
S3150000310C059B0790524621460AA805F00EFC079B24
S3150000311C012B01D0013014D14FF0870A50460FB065
S3150000312CBDE8F08F059B09985246214605F0FDFB3C
S3150000313C0128F1D0059B0A985246214605F0F5FB6D
S3150000314CE8E7069B002B59D1089B0394DB78CDF856
S3150000315C0090CDE901B33A4643463146284601F084
S3150000316C6EFB82460028D9D1089B0394DB78CDF8F8
S3150000317C0090CDE901B33A46434631462846FFF75F
S3150000318CECFD82460028C9D101230093069B2246FA
S3150000319C19460BA8FFF77AF882460028BED1089B81
S315000031AC324629462046FFF7AEFB43463A463146A1
S315000031BC2846CDE901B4CDF8009015F0B3F9089B7B
S315000031CC0394DB78CDF80090CDE901B33A4643463B
S315000031DC3146284601F032FBCDF8009043463A467C
S315000031EC31462846FFF791FD98E74FF0860A95E79A
S315000031FC4FF08D0A92E74FF0880A8FE74FF0000ADE
S3150000320C8CE72DE9F04786B007460F9D9DF8406088
S3150000321CBDF838400094CDE90156884691469A4649
S3150000322C01F0A2FA98B102280ED84FF000030493CD
S3150000323C08BF0123CDE90263CDE9004553464A4652
S3150000324C41463846FFF712FF06B0BDE8F08701206D
S3150000325CFAE730B587B000240125CDE903549DF873
S3150000326C2C5002950A9DCDE90045FFF7FFFE07B0ED
S3150000327C30BD30B587B000240125CDE903549DF847
S3150000328C28500094CDE901358023FFF7EFFE07B0F7
S3150000329C30BD30B587B000240125CDE903549DF827
S315000032AC28500094CDE901354023FFF7DFFE07B027
S315000032BC30BD10B586B04FF0000C0124CDE9034C9F
S315000032CC9DF824400294089CCDE900344023FFF776
S315000032DCCDFE06B010BD10B586B04FF0010C002423
S315000032ECCDE9034C9DF828400294099C0194BDF845
S315000032FC20400094FFF7BAFE06B010BD30B587B07B
S3150000330C00258DF81030BDF828308DF80C00ADF87E
S3150000331C0E10ADF81220ADF814300095BDF8303013
S3150000332C0B9A0D9C029502A903A8FEF7AFFF18B9DC
S3150000333C14B1029B9B78237007B030BD1FB5089C57
S3150000334C03949DF81C400294069C0194002400945E
S3150000335CFFF7D4FF04B010BD30B585B000249DF83E
S3150000336C20500394CDE9013500944023FFF7C6FFA6
S3150000337C05B030BD2DE9F04FDFF8CCB0A9B04FF059
S3150000338C0008FEF7FFFE5FFA88F5A84202D829B0BE
S3150000339CBDE8F08F2D010BEB05034FF000090493EC
S315000033AC0BEB05035FFA89F49B681A79A24202D8E3
S315000033BC08F10108E5E71B68142202FB0434002619
S315000033CC2289B3B29A4202D809F10109E8E70C2323
S315000033DC1FFA86FA03FB0AFA6368059303EB0A07DE
S315000033EC09F0FAF939462046FEF71AFF049B2188A4
S315000033FC93F800C0059B33F80A203B794FF0000E7A
S3150000340C13F0400F0DF11C0A4FF08103CDE9023E7B
S3150000341CCDE9000A14BF802340236046FFF76EFFF8
S3150000342C862806D0B878FEF7C3FE20B1504602F0C7
S3150000343C15FC0136C4E7B878FEF7C0FE0028F8D0B4
S3150000344C504602F010FCF4E7E4390020F0B5A7B0C2
S3150000345C1646BDF8B470042F48D90DF11304039425
S3150000346C8124029405ADBDF8B04000940195FFF798
S3150000347C45FF0446A0BB9DF81300A0F14103012BA8
S3150000348C21D8284602F0EAFB0130C4B2E31CBB4249
S3150000349C2CDA304602F06CFB154E002002F054FB81
S315000034AC9DF8130002F050FB33881A19FE2A1DDC16
S315000034BC1048A4B222461844294602F0B1FA3088C4
S315000034CC0444348012E0A0F14303012B04D82846AF
S315000034DC02F0C9FB0230D8E7FEF7EEFD0446D5E74D
S315000034EC304602F045FB204602F02EFB27B0F0BD1D
S315000034FCC83C0020D83C002038B5C37B05460BB130
S3150000350C832038BDC47C2CB906F0E4FD20B9EB7BD6
S3150000351C002BF5D18120F4E72046F2E7C37B10B5EA
S3150000352C04460BB1832010BDC37C012B13D003D3EF
S3150000353C402B13D08120F6E7017D82898B1C9A42A1
S3150000354C18D3806802F072FB10F0CAF8A0B9E37BBE
S3150000355C002BE7D1EEE710F0DBF8F7E7037D818966
S3150000356C9A1C914206D38268591CD05C515C17F0A8
S3150000357C53FCEBE78020D6E70020D4E7F8B5C37BF5
S3150000358C04460BB18320F8BDC37C052B29D8DFE894
S3150000359C03F0032A35414C4F057D8289AB1C9A42B8
S315000035AC01D28020EFE7ADB22946806802F03EFBDF
S315000035BC0646A068A7890235284402F04FFB28442A
S315000035CC01308742EDD32946A289A06802F034FB6C
S315000035DC014630460FF0D4FD002848D1E37B002B82
S315000035ECD0D18120CFE7017D82898B1C9A42D8D31A
S315000035FC806802F01BFB0FF0E3FDEDE7037D81898C
S3150000360C5A1C9142CDD38268591C1144D05C0FF0E0
S3150000361C07FEE1E7017D82898B1C9A42C1D3806843
S3150000362C02F004FB0FF07EFED6E70FF0D7FED3E7D1
S3150000363C057D8289AB1C9A42B3D3ADB2294680680C
S3150000364C02F0F4FA0646A068A7890235284402F06F
S3150000365C05FB284401308742A3D32946A289A068DA
S3150000366C02F0EAFA014630460FF000FFB4E70020FC
S3150000367C89E7C37B2DE9F7430446002B40F02C81E8
S3150000368CC37C042B00F0B7800BD8012B00F088808C
S3150000369C3FD3022B00F09480032B00F0A1808120F5
S315000036AC3DE0402B00F0C8800FD8052B00F0B3800E
S315000036BC062BF4D1017D82898B1C9A422ED380680D
S315000036CC02F0B4FA15F068FC61E0412B00F0F380CF
S315000036DC422BE4D1037D8289D91D8A421ED39DB229
S315000036EC8068691CC65C02F0A1FAEB1C0746A06850
S315000036FCA28910F80380291D02F098FA0635A368F2
S3150000370C5B5D0093424603463946304617F06CFE25
S3150000371C3DE0057D8289AB1C9A4203D2802003B022
S3150000372CBDE8F083ADB22946806802F07FFAA28923
S3150000373CE91C8A42064605F10203EFD3881C824235
S3150000374CECD3A068C75C02F071FA8046A068B4F8A6
S3150000375C0C900535284402F081FA28440130814545
S3150000376CDCD32946A289A06802F066FA8146A068D5
S3150000377C284402F073FA01300544A06810FA85F566
S3150000378C00954B4642463946304616F01DF8002841
S3150000379C40F0A480E37B002B14BF83208120BEE77E
S315000037AC057D8289EB1C9A42B8D3ADB22946806856
S315000037BC02F03CFA0235A368595D16F0EBF8E6E721
S315000037CC057D8289EB1C9A42A8D3ADB22946806846
S315000037DC02F02CFA0235A368595D15F007FBD6E703
S315000037EC017D82898B1C9A4298D3806802F01EFA5E
S315000037FC15F06AFBCBE7057D8289EB1C9A428DD3CB
S3150000380CADB22946806802F011FA0235A368595DFB
S3150000381C15F00EFDBBE7057D8289EB1C9A42FFF481
S3150000382C7DAFADB22946806802F000FA0235A36876
S3150000383C595D15F0D5FDAAE7057D8289AB1C9A4228
S3150000384CFFF46CAFADB22946806802F0EFF9A2899D
S3150000385CE91C8A42064605F10203FFF45FAF881C99
S3150000386C8242FFF45BAFA068C75C02F0DFF98046CA
S3150000387CA068B4F80C900535284402F0EFF92844FA
S3150000388C01308145FFF44AAFA289A068294602F0AF
S3150000389CD3F98146A068284402F0E0F901300544CA
S315000038ACA06810FA85F500954B46424639463046D7
S315000038BC17F082FD6BE7057D8289EB1C9A42FFF4BB
S315000038CC2DAFADB22946806802F0B0F90235A36877
S315000038DC595D17F081FD5AE7832020E700201EE78B
S315000038ECF8B5C37B04460BB18320F8BDC37C022B11
S315000038FC21D004D8ABB1012B1AD08120F5E7412B8E
S3150000390C1CD0422B1DD0402BF7D1037D81899A1CEC
S3150000391C91422DD38268591CD05C515C17F0C6FBC2
S3150000392C01E011F0E3FE28BBE37B002BE5D0DBE7DF
S3150000393C11F0F2FEF7E711F005FFF4E717F0FCFBC8
S3150000394CF1E7037D8289591D8A4211D39DB28068A5
S3150000395C691CC65C02F06AF9A2890746E91CA068D4
S3150000396C02F064F939460246304617F025FCDAE7D0
S3150000397C8020BAE70020B8E7C37BF7B50446002BD6
S3150000398C40F0D180C37C072B00F2CF80DFE813F028
S3150000399C08003700590085009A00A900B500C80038
S315000039AC037D8289591C8A42C0F0C1809DB2691C74
S315000039BC881C8242C0F0BB80A068C75C02F036F956
S315000039CCEB1CA6895A1C964222BFA268D25C2B1D00
S315000039DC014603F1010038BFFF2286422ABFA068C8
S315000039ECFF23C35C384610F057FC002840F0A1803A
S315000039FCE37B002B14BF8320812003B0F0BD067D32
S31500003A0C8589731C9D42C0F09280B7B2BA1C954250
S31500003A1C07F10103C0F08B808068C15C134601324C
S31500003A2C954224BFC25CFB1C03F1010738BFFF2281
S31500003A3CBD4228BFC35C805D38BFFF2310F049FC34
S31500003A4CD3E7037D8289591C8A4270D39DB2A91C87
S31500003A5C8A4205F101076AD3881C824267D3A068A3
S31500003A6CC65CC75D02F0E2F8291DB4F80CC04B1C0D
S31500003A7C9C4522BFA3685B5C691D024601F10100EF
S31500003A8C38BFFF2384452ABFA068FF21415C009103
S31500003A9C3046394610F035FCA7E7027D8189501C6B
S31500003AAC814293B222BFA0680133805C03F101020C
S31500003ABC38BFFF2091422ABFA268FF21D15C10F0CB
S31500003ACC3CFC92E7017D8289CB1C9A422FD38068FD
S31500003ADC455C013102F0AAF80146284610F0EAFBD3
S31500003AEC83E7037D81899A1C914220D38268591CF5
S31500003AFCD05C515C10F0F9FB77E7037D8289191DC8
S31500003B0C8A4214D3806899B2C55C4B1C0231C65CE0
S31500003B1C02F08CF831460246284610F000FC64E7A9
S31500003B2C10F013FC61E7832067E7812065E78020AE
S31500003B3C63E7002061E72DE9F04FC37B8FB00446A5
S31500003B4C1BB183200FB0BDE8F08FC37C0B2B4DD877
S31500003B5CDFE813F00C00550030014C004C004C0013
S31500003B6C57014C004C004C00C301D701037D8289E0
S31500003B7C581C824224BFA06810F8038099B234BF47
S31500003B8C4FF0FF08013118F0070509D10F1DBA4295
S31500003B9C2FD3A06802F044F8B9B20646FF2711E00D
S31500003BAC022D25D101F108039A42C0F0DF81A568E8
S31500003BBC0D4499B24B1C9A421BD3A2684FF0FF36A8
S31500003BCC575C99B2A2890B1D9A4215D3A06802F0D4
S31500003BDC27F800903B462A46314640460EF0A6FA98
S31500003BEC002840F0C181E37B002BAAD18120A9E7F4
S31500003BFC00254FF0FF36D1E74FF0FF30E9E7037DA4
S31500003C0C82899DB203339A4218D32946806802F002
S31500003C1C0AF80335064616F0070712D1A28905F1F4
S31500003C2C04084245C0F0AD802946A06801F0F8FFB3
S31500003C3C1FFA88F583464FF0FF0A18E04FF0FF365F
S31500003C4CE9E7022F40F09C80A28905F108039A420D
S31500003C5CC0F08E81A7682F449DB26B1C9A42C0F0AF
S31500003C6C9080A2684FF0FF3B12F805A09DB216F0AB
S31500003C7C100340F0898016F0600903D0B9F1600F8B
S31500003C8C40F07B81A28905F108039A42C0F072814B
S31500003C9CA168294409919DB2B9F1000F03D0B9F17D
S31500003CAC600F40F06B81AB1C9A42C0F06C812946C8
S31500003CBCA0680A9301F0BAFF0A9B80469DB2B9F13F
S31500003CCC200F02D0B9F1400F62D1A289AB1C9A42E7
S31500003CDC0A935DD32946A06801F0A8FF0A9B81468A
S31500003CEC9DB206F01803082B55D1A2896B1C9A427B
S31500003CFC51D3A268525D0A929DB271044ED5A28927
S31500003D0C2B1D9A424AD32946A0680C9301F088FFD2
S31500003D1C0C9B0B909DB216F4004344D0A28905F17E
S31500003D2C10039A423ED3A2682A440C929DB2F20327
S31500003D3C3BD5A289AB1C9A4237D32946A0680D9372
S31500003D4C01F074FF0D9B9DB2B30331D5A2896B1C98
S31500003D5C9A422DD3A3685B5DCDF80480CDE90603AA
S31500003D6C0C9B05930B9B04930A9BCDE90293099B31
S31500003D7C00933A465346594630460EF0D9F92FE78A
S31500003D8C00274FF0FF3B56E700234FF6FF780993C9
S31500003D9C4FF6FF79A5E7FF230A93AEE74FF0FF3303
S31500003DAC0B93B8E700230C93C1E74FF6FF70CBE7F4
S31500003DBCFF23D1E7017D8289481C824224BFA0687B
S31500003DCC455C8BB234BFFF250133A90714D59E1C65
S31500003DDCB24211D31946A06801F028FFB3B20146CE
S31500003DECEA060CD5A0895A1C904208D3A268D25C6C
S31500003DFC28460EF057F9F3E64FF6FF71F0E7FF226F
S31500003E0CF6E7037D82898068591C8A429DB228BFD9
S31500003E1C013505F102062CBF10F803804FF0FF08A0
S31500003E2CB24233D3294601F001FFB5B28146A289CD
S31500003E3CA0686B1C9A422ABF10F805A04FF0FF0A27
S31500003E4C9DB218F0070624D105F1040B5A4530D360
S31500003E5C294601F0E5FE1FFA8BF507464FF0FF0BDE
S31500003E6CA289A0680A92691C8A4223BF435D099302
S31500003E7C8DB2FF23284438BF099301F0EFFE0A9A4E
S31500003E8C28440130824217D280205BE64FF6FF7938
S31500003E9CCDE7022E0CD105F108039A4271D34619CF
S31500003EAC9DB210F805B00135ADB24FF0FF37D7E72C
S31500003EBC00264FF0FF37D1E7A289A068294601F00A
S31500003ECCBBFE099B0390CDE901B300963B465246D7
S31500003EDC494640460EF0B6F982E6007DA289031DDE
S31500003EEC9A42D1D386B2A568F31CB21C711C043657
S31500003EFCEB5CAA5C695C285C354400950EF050FAC4
S31500003F0C6EE6037D8289591C8A42BDD38068C65CE5
S31500003F1C9FB216F01F0507F1010104D101F080FED6
S31500003F2C791D002206E0022D1BD1421807F109016A
S31500003F3C4FF0FF3006F00703022B01BFA3684D1CA0
S31500003F4C5B5CA9B206F0180518BFFF23082D0ABF43
S31500003F5CA568FF256D5C0095014630460EF00EFBFC
S31500003F6C3EE64FF0FF30DCE70020EBE5002521E6CE
S31500003F7C002772E6002309938EE609934FF6FF7825
S31500003F8C9DE600268DE7B9F1200F4FF6FF787FF4FA
S31500003F9C99AEFDE62DE9F043C37B85B00446002BB4
S31500003FAC40F0A482C37C062B00F05C813AD8022B2D
S31500003FBC00F0EB8007D8002B00F08F80012B00F06F
S31500003FCCC48081208FE0042B067D858900F02A8130
S31500003FDC40F20481731C9D42C0F08480B7B207F195
S31500003FEC010C0CF101039D427CD3FA1C954207F19E
S31500003FFC020377D38068F91CC25C4B1C9D4224BF1C
S3150000400C435C391D01F1010738BFFF23BD4228BFB0
S3150000401C455C10F80C10805D38BFFF25009506F046
S3150000402C91FC89E00A2B00F0AA8139D8082B017D76
S3150000403C828900F07B8140F244818B1C9A4251D3D9
S3150000404C8DB22946806801F0F1FDA91CA2898B1C52
S3150000405C9A42074646D3A06801F0E8FD291DA289BD
S3150000406C8B1C9A4280463DD3A06801F0DFFDA91D4A
S3150000407CA6894B1C9E4222BFA3685B5CE91D0246C7
S3150000408C01F1010038BFFF2386422ABFA068FF2139
S3150000409C415C009138B20FFA88F106F06BFD4BE0EB
S315000040AC4B2B00F097814C2B00F0D481472B88D1F9
S315000040BC027D8189501C814293B222BFA0680133D4
S315000040CC805C03F1010238BFFF2091422ABFA2682F
S315000040DCFF21D15C06F0F0FE2EE0037D8289591C8F
S315000040EC8A4203D2802005B0BDE8F0839DB2A91C9C
S315000040FC8A4205F10107F5D3881C8242F2D3A068E7
S3150000410CC65CC75D01F092FD291DB4F80CC04B1CB2
S3150000411C9C4522BFA3685B5C691D024601F1010048
S3150000412C38BFFF2384452ABFA068FF21415C00915C
S3150000413C3046394606F0F8FA002840F0D981E37B80
S3150000414C002B14BF83208120CDE7067D8589731C47
S3150000415C9D42C7D3B7B2BA1C954207F10103C1D32E
S3150000416C8068C15C13460132954224BFC25CFB1CBD
S3150000417C03F1010738BFFF22BD4228BFC35C805D37
S3150000418C38BFFF2306F01CFAD6E7077D85897B1C12
S3150000419C9D42A7D3BEB206F1010C0CF101039D4260
S315000041ACA0D3F21C954206F102039BD38068F11C46
S315000041BCC25C4B1C9D4224BF435C311D01F10106C0
S315000041CC38BFFF23B54228BF455C10F80C10C05D04
S315000041DC38BFFF25009506F059FBADE7731C9D42D1
S315000041EC80D3B7B2791C8B1C9D42FFF47BAF8068E1
S315000041FC2A46865D01F01AFDFB1CA5895A1C9542C0
S3150000420C22BFA268D25C3B1D014603F1010038BFF8
S3150000421CFF2285422ABFA068FF23C35C304606F006
S3150000422CEBFA89E7731C9D42FFF45CAFB7B2BA1C7C
S3150000423C954207F10103FFF455AF8068C15C134644
S3150000424C0132954224BFC25CFB1C03F1010738BF47
S3150000425CFF22BD4228BFC35C805D38BFFF2306F03A
S3150000426C11FA69E7037D8289591C8A42FFF43AAF39
S3150000427C9DB2A91C8A4205F10107FFF433AF881CD5
S3150000428C8242FFF42FAFA068C65CC75D01F0CEFC7E
S3150000429C291DB4F80CC04B1C9C4522BFA3685B5C63
S315000042AC691D024601F1010038BFFF2384452ABF70
S315000042BCA068FF21415C00913046394606F012F9A0
S315000042CC3AE78B1C9A42FFF40DAF8DB229468068F3
S315000042DC01F0ACFCA91CA2898B1C9A420746FFF480
S315000042EC01AFA06801F0A2FC291DA2898B1C9A4281
S315000042FC8046FFF4F7AEA06801F098FCA91DA689CC
S3150000430C4B1C9E4222BFA3685B5CE91D024601F171
S3150000431C010038BFFF2386422ABFA068FF21415CFB
S3150000432C00913846414606F065FB05E78B1C9A4220
S3150000433CFFF4D8AE8DB22946806801F077FCA91C33
S3150000434CA2898B1C9A420746FFF4CCAEA06801F0FA
S3150000435C6DFC2B1DA6895A1C964222BFA268D25C04
S3150000436C6B1D01B203F1010038BFFF2286422ABF42
S3150000437CA068FF23C35C38B206F090FBDCE6057D33
S3150000438C8289AB1C9A42FFF4ADAEADB22946806869
S3150000439C01F04CFCA91CA2898B1C9A420746FFF41F
S315000043ACA1AEA06801F042FC2B1DA6895A1C9642B0
S315000043BC22BFA268D25C6B1D014603F1010038BF17
S315000043CCFF2286422ABFA068FF23C35C384606F04C
S315000043DC4BFCB1E6037D8289591C8A42FFF482AEFE
S315000043EC9DB2691C881C8242FFF47CAEA068C65C38
S315000043FC01F01CFCE91CA2898B1C9A420746FFF4AF
S3150000440C71AEA06801F012FC691DA2898B1C9A4240
S3150000441C8046FFF467AEA06801F008FCEA1DB4F80C
S3150000442C0CC0511C8C4522BFA168895C05F10802A1
S3150000443C034602F1010038BFFF21844526BFA06860
S3150000444C825CFF22CDE9001230464246394606F020
S3150000445C25FC71E6037D8289591C8A42FFF442AE23
S3150000446C9DB2691C881C8242FFF43CAEA068C65CF7
S3150000447C01F0DCFBE91CA2898B1C9A420746FFF46F
S3150000448C31AEA06801F0D2FB691DA2898B1C9A4241
S3150000449C8046FFF427AEA06801F0C8FBE91DA2898F
S315000044AC8B1C9A428146FFF41DAEA06801F0BEFB40
S315000044BC05F10902A389511C8B4222BFA168895CB4
S315000044CC05F10A0202F1010538BFFF21AB4224BFF8
S315000044DCA3689A5C009038BFFF22CDE901124B46C7
S315000044EC42463946304606F03FFC25E68320FAE57F
S315000044FC0020F8E5C37B10B504460BB1832010BD34
S3150000450CC37C412B03D0422B0FD08120F7E7037DD0
S3150000451C81895A1C914212D38268D05C17F046F8F6
S3150000452C78B9E37B002BE9D1EFE7037D81895A1C2F
S3150000453C914204D38268D05C17F088F8F0E78020AB
S3150000454CDDE70020DBE70000C37B70B50446F3B162
S3150000455C036941F2A20223F47F03934219D1057D2C
S3150000456C86898068284401F079FB2844013086420C
S3150000457C01D2802070BDA289A068294601F05CFB9F
S3150000458CFCF76EFA002868D1E37B002B58D181200A
S3150000459CF0E7334A934211D1057D86898068284419
S315000045AC01F05CFB284401308642E2D3A289A06864
S315000045BC294601F041FBFCF791FAE3E7294A9342BD
S315000045CC11D1057D86898068284401F047FB284473
S315000045DC01308642CDD3A289A068294601F02CFB76
S315000045ECFCF78AFACEE7204A93420AD1017D8289EA
S315000045FC8B1C9A42BDD3806801F018FBFCF74CFB70
S3150000460CC0E71A4A93420AD1037D818903F1080255
S3150000461C9142AED380681844FCF740FBB2E7144ACB
S3150000462C93420AD1037D818903F108029142A0D3FA
S3150000463C80681844FCF7BAFAA4E70E4A934201D0F4
S3150000464C832097E7017D82898B1C9A4291D38068DF
S3150000465C01F0ECFAFCF70EFB94E700208AE700BFAA
S3150000466CA2100002A2100005A2100007A210001151
S3150000467CA2100013A210001538B5C37B002B437D86
S3150000468C14BF8325C325012B044619D10368028A5E
S3150000469C59885879FDF7A0FF90B123685B88192BD0
S315000046AC03D0212B07D0284638BDE37B002B14BF43
S315000046BC83258125F7E72046BDE83840FFF73BBA4E
S315000046CC637D002BEFD12368228A59885879FDF730
S315000046DC7AFF0028E7D023685B88062B34D012D8E3
S315000046EC032B27D006D8002BDDD12046BDE8384059
S315000046FCFEF702BF042B22D0052BD4D12046BDE8F1
S3150000470C3840FEF7B6BFB3F5407F22D006D8082B4B
S3150000471CC9D12046BDE83840FFF72EB9B3F5805F06
S3150000472C1CD04FF610429342BDD12046BDE838400E
S3150000473CFFF70ABF2046BDE83840FEF7EFBE20461D
S3150000474CBDE83840FEF71ABF2046BDE83840FFF7F3
S3150000475CC7B82046BDE83840FFF71CBC2046BDE86C
S3150000476C3840FFF7C7BE70470120704701207047DD
S3150000477C01207047704700207047002070470020CA
S3150000478C70470020704700207047002070470120BA
S3150000479C704701207047B5207047002070470020F5
S315000047AC7047002070470020704700207047704704
S315000047BC0020704700207047704700207047842007
S315000047CC704770477047704770477047704770471F
S315000047DC704700207047704770477047002070473D
S315000047EC704702F0F1B903207047002070470000B3
S315000047FC034B1B681878012808BF0220704700BFBE
S3150000480CEC2200207047002070470000034A034644
S3150000481C0120C3E9032000221A7070470100FEFF35
S3150000482C7047704770470020704700207047002083
S3150000483C7047002070477047002070477047002073
S3150000484C70470020704700207047002070470020FA
S3150000485C7047002070470020704700207047704753
S3150000486CB520704700207047002070477047002025
S3150000487C70477047704770477047B5207047704750
S3150000488C70477047002070477047012200210920AD
S3150000489C04F012BA02292DE9F84F0546894604D8C8
S315000048AC4FF0000B5846BDE8F88F1BB10429F7D919
S315000048BC42F004020C9C2A70002B50D06B701B0A21
S315000048CCAB70032703F0D6FD07F1020BE855013751
S315000048DC9DF82830EB55464E4FF000085FFA88F3EA
S315000048EC0B9AD05C0028DDD0732861D8A0F14C035C
S315000048FCDBB2162B04F10407D4F800A039D826FA3B
S3150000490C03F3DB4313F001033BD162684C2804F13B
S3150000491C080794B225D14FF6FF7322469C4214BF6A
S3150000492C022300230BEB040018448145B8DBDE465A
S3150000493C1846002851D19B441FFA8BFB5CB1BAF187
S3150000494C000FADD005EB0B002246514601F068F87E
S3150000495CA3441FFA8BFB08F101083C46BEE701276E
S3150000496CB0E753281BD1D2B2B2F1FF0318BF012313
S3150000497CD8E76C2805D1504601F075F9023084B29F
S3150000498C0CE0732804D1504601F068F90130F6E7C3
S3150000499CA0F13004E3B2092B03D8A4B200231A46C3
S315000049ACC0E7A0F14103062B3FF67AAF3738E6E7AE
S315000049BC752808D076280CD078280CD077287FF468
S315000049CC6FAF042300E00123271D22680024A246B2
S315000049DCA8E70223F8E70323F6E70EF1010C0138EA
S315000049EC05F80E20C0B2120A1FFA8CFEA1E700BF12
S315000049FC8100400010B5044C206004480180044935
S31500004A0C0A60044A136010BD5C220020602200205C
S31500004A1C582200205422002070B586B00AAC0D46F0
S31500004A2C54F8046B0B49059409880093CDE901648D
S31500004A3C1346024608480068FFF72CFF074B1B6815
S31500004A4C1880074B1B684FF48A525D80DA8006B0DB
S31500004A5C70BD00BF602200205C220020582200207E
S31500004A6C5422002008B430B586B009AB0C4653F876
S31500004A7C045B0D49059309880092CDE90153024662
S31500004A8C0A4800230068FFF705FF094B1B681880CE
S31500004A9C084B1B684FF48A525C80DA8006B0BDE87E
S31500004AAC304001B0704700BF602200205C2200201D
S31500004ABC5822002054220020044B054A196812681B
S31500004ACC0988034603480068FCF7DABB5822002025
S31500004ADC5C220020542200200020FFF7EDBF0000CE
S31500004AEC1FB5074C246824880091CDE9012305499C
S31500004AFC054B09681B682246FCF7FEFA04B010BD8C
S31500004B0C58220020542200205C2200200023FFF7AC
S31500004B1CE7BF0000044B054A1B6812681988044B52
S31500004B2C1868FCF719BB00BF582200205C22002035
S31500004B3C5422002007B5074B1B681B880192064AB6
S31500004B4C12680092054A1268FCF76EFB03B05DF81A
S31500004B5C04FB00BF582200205C22002054220020B7
S31500004B6C0022FFF7E7BF00001FB5074C2468248816
S31500004B7C0091CDE901230549054B09681B682246BE
S31500004B8CFCF736FB04B010BD58220020542200203E
S31500004B9C5C2200200023FFF7E7BF00001FB5094C7D
S31500004BAC24680394084C246824880294BDF81840A1
S31500004BBC0194064C246864880094FCF797FB04B0B7
S31500004BCC10BD00BF5C220020582200205422002079
S31500004BDC014B1868704700BF54220020024B1B681B
S31500004BEC18715971704700BF54220020F8B50D4654
S31500004BFC8C680A6826490646202008F028FA6B6855
S31500004C0C7BB92449202008F022FA202014F04EFF0C
S31500004C1C2149202008F030FA2020BDE8F84014F095
S31500004C2C45BF002EF1D01D4D1D4E1E4F013C14F8F4
S31500004C3C013F23B91849202008F01EFAE5E7752B29
S31500004C4C16D0762B16D0772B16D0732B16D0722B3C
S31500004C5C16D0712B16D0622B16D06E2B16D012498D
S31500004C6C124A2A2B18BF1146202008F0F0F9DEE76D
S31500004C7C2946F9E73146F7E73946F5E70C49F3E7F4
S31500004C8C0C49F1E70C49EFE70C49EDE70C49EBE76A
S31500004C9C73DC03001AC00300CBBF0300D8BF0300AC
S31500004CACCCBF0300E3BF030021C003001EC00300FA
S31500004CBCEFBF0300F9BF030004C003000FC00300DD
S31500004CCC19C00300F0B5214A92F87B30184452FA09
S31500004CDC80F01F4B90F865C090F866501F78A5EBD6
S31500004CEC0C050026EDB23046F4B2A54225D90CEBE4
S31500004CFC060313445B7811B10CB92D2B17D0782B06
S31500004D0C1FD0582B05D108B137240AE0013C012CE1
S31500004D1C14D9602B17D8402BF6D83A2B34BF302435
S31500004D2C00241B1BDBB29F4203D900FB0730013664
S31500004D3CDAE7052382F879300020F0BD1027002031
S31500004D4CF5E70028E2D05724EBE700BF62220020EB
S31500004D5CEE1B0020094A0023FF21137082F87830DD
S31500004D6C82F8653082F8773082F8793082F87A10DA
S31500004D7C82F87B30024A1360704700BF6222002023
S31500004D8C943C0020034B93F8770093F87B30C01AC1
S31500004D9CC0B27047622200200021FFF793BF0000CB
S31500004DAC10B50A4B93F87B20024453FA82F292F820
S31500004DBC652013445C78A4F12D0359425941FFF741
S31500004DCC81FF2D2C08BF404210BD00BF622200207F
S31500004DDC30B50C4A92F87B300344C043DBB2C00FAB
S31500004DEC39B1D51895F8664095F86550641B241AA8
S31500004DFC0C7042FA83F393F865301844024B18444E
S31500004E0C30BD00BF6222002063220020F7B50E469B
S31500004E1C0DF1070115461C46FFF7DAFF9DF8073022
S31500004E2CAB42074688BF8DF807501CB19DF807406A
S31500004E3C2C1BE4B222463046002100F04DFE301900
S31500004E4C9DF80720394600F0EBFD9DF8070003B0EE
S31500004E5CF0BD38B508220C460123FFF7D7FF04F145
S31500004E6C0803621E043413F8011D12F8015F1D704D
S31500004E7CA3421170F7D138BD38B50146054601205D
S31500004E8CFFF7B4FED5E901436CB91C46084D2368FF
S31500004E9C63B12946202008F0DAF821460020FFF7F6
S31500004EACA5FE0C34F3E71B786E2BEFD038BD00BF94
S31500004EBC7AFA030008B50449202008F0C8F8202027
S31500004ECCBDE8084014F0F2BD8CBF030038B5FFF7FF
S31500004EDCF1FF064D002461190C34631953F80C3C90
S31500004EEC03B938BD0020FFF781FEF4E764A903007F
S31500004EFC2DE9F84F1F4B204D53F820201F49202039
S31500004F0C08F0A5F82B681BB9BDE8F84FFFF7DEBF14
S31500004F1C1B4FDFF874A0FFF7CDFF0026B94697F8B4
S31500004F2C7B30F4B2013B9C4204DB2868BDE8F84FA9
S31500004F3CFFF7A2BF47FA86F34C4493F8658000232B
S31500004F4CC84494F8662094F86510521A03F1010BC4
S31500004F5CD2B2DBB2934205D30A49202008F077F887
S31500004F6C0136DCE7434451465A78202008F06FF8A6
S31500004F7C5B46E6E7F01B0020943C002087BF03004D
S31500004F8C622200207BFA030062DD03002DE9F74F55
S31500004F9C824C94F87730002B00F0A380804B1B7862
S31500004FAC13F0010F04F101071FD000257D4E14E00C
S31500004FBC6319202093F8662093F86530D21A44FAC8
S31500004FCC85F3D2B293F86510394414F06AFD314674
S31500004FDC202008F03CF80135EDB294F87730AB425E
S31500004FECE6D87149202008F032F894F8773001930E
S31500004FFCDFF8C0E16D4B002671461EF8012B91F8C7
S3150000500C01C04FF00008ACEB020C07EB020A5FFA8A
S3150000501C8CFC45461868002853D00138D14619E057
S3150000502C2AB9002D4BD04FF001080C33F2E719F8D2
S3150000503C011BA1F1410BBBF1190F98BF2031A2F155
S3150000504C410B98BFC9B2BBF1190F9CBF2032D2B22B
S3150000505C8A42EAD1A9EB0A01614510F8012FDFD18A
S3150000506C002ADED11D46524B1D6094F87B3001336D
S3150000507C84F87B30D5E901230136F6B2002A36D006
S3150000508C1B786E2B32D03F2B24D04FF000094F46A5
S3150000509C4FF0070A4FF0040B5FFA89F0811994F868
S315000050AC77C0AA68C9B28C45D35D28D893B117448A
S315000050BC7B782A2B1CBF032384F879300AE01D4623
S315000050CCB3E7B8F1000F01D1002DCCD1022384F83F
S315000050DC7930002594F8790000285CD1686800F0D6
S315000050EC2FF903B0BDE8F04FFFF734BE1346019A13
S315000050FCB24281D8032284F879201D46EAE7732B45
S3150000510C08D8712B0AD2002B43D0622B30D084F8EE
S3150000511C79A016E0A3F17502022AF8D8752B1ED0D9
S3150000512C762B1FD0732B20D0722B47F6FF7818BF27
S3150000513C4FF0FF380121FFF7C5FD404501D984F832
S3150000514C79B0AB683B4409F101095B782A2B94F8DA
S3150000515C79301CBF0137FFB2002B9DD0BAE74FF058
S3150000516CFF08E7E74FF6FF78E4E74FF07F08E1E743
S3150000517C94F87B30184454FA80F090F86530234448
S3150000518C5B78222BDDD07B2BDBD0052384F87930A2
S3150000519CD7E70323FAE7FFF7ABFEA2E7622200206C
S315000051ACDE2200207BFA0300C9BF030064A90300BA
S315000051BC943C0020C72200202DE9F3415E4C5F4F42
S315000051CC06460D464FF0000866B90DF10701284654
S315000051DC14F062FC78B1262800F0A980012384F82B
S315000051EC79304BE0002D00F0A28016F8013B8DF8CB
S315000051FC0730013DEDB23A789DF807303B700D2A29
S3150000520C01D10A2BE0D00D2B0CD0A3F10A0251428E
S3150000521C514122788846042AD6D8DFE802F0051DCB
S3150000522C263C31000121F4E721B1FFF7AFFE4FF028
S3150000523C0108C9E7202B63D0222B07D10223237048
S3150000524C94F87820642A5DD10623C8E77B2B01D11C
S3150000525C0323F4E70123F2E709B9202BF0D194F8E4
S3150000526C7730112B3FD10323B9E7222BF7D0002936
S3150000527CE6D0052384F879304FF001080423237017
S3150000528CB8F1000FA0D094F8790008B1FFF730FE02
S3150000529CFFF760FD98E77D2B94F87A0003D1FF2881
S315000052ACDDD005239BE7602B13D8402B13D8392B65
S315000052BC8CBF002230229A1AD2B20F2A10D8FF289D
S315000052CC0BD002EB0012FF238DF8072084F87A30FE
S315000052DCB6E75722EFE73722EDE784F87A2073E733
S315000052EC202BDED170E70133DBB284F87730234410
S315000052FC94F8782083F8652000232370002994D134
S3150000530C884661E72378012B09D19DF80730A3F174
S3150000531C410119299CBF2033DBB28DF80730A31845
S3150000532C9DF807105970013284F878204CE74046F6
S3150000533C02B0BDE8F08100BF62220020DF2200200F
S3150000534C10B5054B0446187800F0A2FCA047BDE842
S3150000535C104000F0A4BC00BFF02200207FB501A8CD
S3150000536CFCF79CFA01AA0349022001F0E7F807B002
S3150000537C5DF804FB04C303002DE9F04F18228DB031
S3150000538CFF230DEB020000218DF80A3033F09DFE51
S3150000539C0DF10B014FF0FF30FFF71AFDFFF7DEFFA3
S315000053AC41F202029D49022001F0C8F804A8FCF75C
S315000053BC57FD06A90DF10A00FCF758FD0220984985
S315000053CC01F0D8F8022001F0A5F810B104A801F0FC
S315000053DC1DF89DF922309DF823209249022001F0F8
S315000053ECADF826F013FF831EDBB2FC2B05462AD83C
S315000053FC8D498E4E8E4FDFF8A482022001F09EF866
S3150000540C012422463146022001F0B4F803A9E0B289
S3150000541C26F0A6FE9128024600F09580932800F00F
S3150000542C9280002840F094809DF90C1000919DF814
S3150000543C0E309DF80D207F49022001F07FF80134D3
S3150000544CE3B2AB42DDD3BDF82040FCF723FB22468A
S3150000545C03467949022001F08DF80220774901F0C4
S3150000546C89F8022001F056F810B106A800F0CEFF1C
S3150000547C7349022001F062F82CF05CF804462CF01B
S3150000548C53F8224603466F49022001F057F8FCF701
S3150000549C07FD6D49022001F06DF89DF80A20FF2AE0
S315000054AC5BD06A49022001F065F86549DFF8F081A6
S315000054BC022001F043F8FCF7E5FC654A6549034612
S315000054CC022001F03BF826F013FE63490246022047
S315000054DC01F050F8FCF7DCFC0446FCF7DFFC224636
S315000054EC03465E49022001F029F8FCF74BFE5C49A5
S315000054FC0246022001F022F80025FCF743FEECB22E
S3150000550CA0422FD801225749574C022001F016F819
S3150000551C002000F0BDFB554B55490022022001F03E
S3150000552C0DF8236853B11A785249022001F006F897
S3150000553C236851495A78022001F000F800F0AFFBBD
S3150000554C0DB0BDE8F08F3946022000F0F7FF76E784
S3150000555C4146022000F0F2FF71E74849022001F0B3
S3150000556C09F8A2E7464B474F03EB04162046D6F83C
S3150000557C0890FDF7A3F882462046FCF709FE0028A2
S3150000558C14BFC346BB462046FDF798F802F04CFE06
S3150000559C002814BF404638465B46009052463A49AE
S315000055ACDFF800B1022000F0E5FFB1797388327B99
S315000055BC0191B18800910220344900F0BFFF00260A
S315000055CC99F80430F4B2A34201D8013595E7D9F81D
S315000055DC00702F482F4914235C4307EB040A3B5BEE
S315000055EC9AF90C2011EA220138BF01460A4602201C
S315000055FC594600F0BFFF022000F08CFF38B1504630
S3150000560C3C5BFCF7FDFD0146204602F0BDFE22493F
S3150000561C022000F093FF0136D2E700BFBCC00300A6
S3150000562CD7C0030003C10300DEC00300F4C00300AF
S3150000563C18C10300FBC003002EC103004CC10300BC
S3150000564C719D030055C1030076C10300D4F203001B
