:10000000E01A0020714D02008DC6000091C600006C
:10001000A70A02020002000004180FAC5065B001EC
:1000200000000000000000000000000000000000D0
:1000300000000000ACF10300000000000000000020
:100040000000000000000000FFFFFFFFFFFFFFFFB8
:10005000FFFFFFFFFFFFFFFFFFFFFFFFFFFFFFFFB0
:1000600000E00F000100000000001000FFFFFFFF94
:10007000FFFFFFFF1C000000000000000000000068
:10008000205F002020530020205300202053002018
:10009000E01A0020A84104000C9303008011002006
:0C00A0004811002000001000205F00202C
:10020000E01A0020714D02008DC6000091C600006A
:1002100099C6000095C600009DC600006D4D020005
:100220006D4D02006D4D02006D4D02006D4D0200DE
:10023000A1C600006D4D02006D4D02006D4D020023
:1002400021E000007522020085C9000014C70000EB
:10025000391D0200E12202008122020099220200DF
:100260007922020055D7000029D8000045F6000089
:1002700055A1010014C7000014C7000045A20000EA
:1002800014C7000014C700004DD80000C98000004A
:1002900014C7000014C7000014C7000014C70000F2
:1002A00014C7000014C7000014C7000014C70000E2
:1002B000E52202007D220200A5DD000025230200C8
:1002C00014C7000051DE010014C7000014C700006D
:1002D00014C7000014C7000014C7000014C70000B2
:1002E00014C7000014C7000014C7000014C70000A2
:1002F00014C7000014C7000014C7000014C7000092
:0C03000014C7000014C700006D4D02007F
:10030C00F8B500BFF8BC08BC9E467047F8B500BFF6
:10031C00F8BC08BC9E46704710B5054C237833B921
:10032C00044B13B10448AFF300800123237010BDBC
:10033C00DC21002000000000A43A040008B5034BA7
:10034C001BB103490348AFF3008008BD0000000057
:10035C00E0210020A43A0400154B002B08BF134BDE
:10036C009D46A3F5803A00218B460F461348144A4C
:10037C00121A38F0B2FF0F4B002B00D098470E4BDF
:10038C00002B00D098470020002104000D000D48E0
:10039C00002802D00C48AFF3008038F06FFF20002B
:1003AC0029001AF061F938F055FF00BF0000080071
:1003BC00E01A00200000000000000000DC210020FA
:1003CC0020530020000000000000000030B585B074
:1003DC00054619490120012406F058F90DF10F03C7
:1003EC00002208210094284603F03AF800940DF1FD
:1003FC000E0300220621284603F032F880B99DF83E
:10040C000E507DB19DF80F200C49204606F03EF9A8
:10041C000B4B4FF400721A609DF80F0007F05CFE56
:10042C0005B030BD0749204606F030F928460CF0DF
:10043C009BF92846F2E700BFB2970300E49703004C
:10044C006CA00046F99703002DE9F041644D654915
:10045C0088B00120002406F019F92C7001F056FB2D
:10046C00022807D047F2305128462CF0F5F908B095
:10047C00BDE8F0810DF11E0303930DF11A030293F5
:10048C000DF11903019306AB00930DF116020DF15A
:10049C0017030DF1150107A8ADF81C408DF8154098
:1004AC008DF816408DF817408DF818408DF81940CE
:1004BC008DF81A40ADF81E4007F01CFF9DF81A107D
:1004CC009DF8193000919DF818204749012006F03D
:1004DC00DDF89DF8183033B99DF8192012B94CF29B
:1004EC005031C1E71C46414D414F2E4605EBC4032C
:1004FC009DF818201979914224D1D9789DF81920AA
:10050C0091421FD13A789DF81A1091421AD239486B
:10051C00DA884FF6FE7100238A4203D030F813C0FC
:10052C00944555D108AB36F8342003F8052D20221C
:10053C00009208210022012002F02FFF9DF81B00E1
:10054C0007F0CAFD0134102CD0D12B4EDFF8A0805F
:10055C0000243746C4EBC405AB199DF81820D97894
:10056C0091422BD199789DF81920914226D198F877
:10057C0000209DF81A10914220D21E48B3F8052095
:10058C004FF6FE7100238A4203D030F813C0944515
:10059C0022D17A5D08AB003218BF012203F8052D79
:1005AC001022009206210022012002F0F6FE7B5D53
:1005BC00012B0CBF6420002007F08EFD0134102CA1
:1005CC00C8D10B4B06481B784FF47A7159434CE752
:1005DC000133322BA0D1B5E70133322BD3D1EDE768
:1005EC002C3400206199030073970300A83300207A
:1005FC00EC1A00200C3800207038002013B5314C58
:10060C00D4E90023501C43F100012F4B0022C4E914
:10061C0000011A7001F07AFA02282BD0D4E90023D9
:10062C002A49012006F032F8D4E90023002B08BF38
:10063C00012A07D10120264906F028F84FF07E60E8
:10064C0038F05EFE15F032F822490090224B234A16
:10065C00012006F01BF844F620611B482CF0FCF836
:10066C0001F050FA1E490246012002B0BDE81040CC
:10067C0006F00CB8D4E90001002300F0010213438A
:10068C000BD01849012006F001F807F045F8164B7D
:10069C001B884FF47A715943DFE70322002338F0AB
:1006AC0059FC134306D01149012005F0EFFF07F068
:1006BC006BF8ECE70E49012005F0E8FF07F0A0F815
:1006CC00E5E700BF0022002044340020E09803003E
:1006DC00F098030002990300950C0400FD980300A8
:1006EC004D99030016990300EA1A00202B99030078
:1006FC003899030008B507F09FFC094B09486422A0
:10070C00DA662CF09DF84FF47A7107482CF0A4F8B7
:10071C0041F288310548BDE808402CF09DB800BF77
:10072C00008401403C340020443400202C34002050
:10073C0030B52B4B2B4D00241C702B7885B001331E
:10074C002B7001F0E3F902282BD107F00FF907F019
:10075C008BF907F003FA64238DF80E3020230093F5
:10076C0022460DF10E03082101208DF80F4002F0F6
:10077C0014FE1D490246012005F088FF102300934A
:10078C0022460DF10F030621012002F006FE174947
:10079C000246012005F07AFF204607F09DFC05B0CB
:1007AC0030BD2B78DB075FBF114B4FF400721A6022
:1007BC00642048BF204607F08FFC0E49012005F04D
:1007CC0065FF4FF47A7106482CF046F814F06EFF72
:1007DC00094B0090094A0A49012005F057FFDEE752
:1007EC003C340020F8210020509503006F95030045
:1007FC006CA000468D950300950C0400FD98030039
:10080C00029903002DE9F041494B4A494A4D4B4F9F
:10081C004B4E00241C704B4B8AB001209B6805F09A
:10082C0035FF07F05FFC0DF1260303930DF1230355
:10083C0002930DF1220301930DF1210300930DF1AD
:10084C001F0208AB0DF11E0109A807F053FD9DF81E
:10085C00231004919DF8221003919DF82110029110
:10086C009DF8201001919DF81F109DF81E30BDF8C9
:10087C00242000910120344905F008FF3349012060
:10088C0005F004FFA846C4EBC40343443946B3F84F
:10089C000520012005F0FAFE6978EB782A790191A0
:1008AC00A97800910120314605F0F0FE013415F8CD
:1008BC00072B2749012005F0E9FE102CE3D125492F
:1008CC00254CDFF878801E4F012005F0DFFE002557
:1008DC00264606EBC5034146DA88012005F0D6FE14
:1008EC00A178237962790191E17800910120394650
:1008FC0005F0CCFE36F8352015490120013505F000
:10090C00C5FE102D04F10804E3D11449144E0B4D0F
:10091C00012005F0BBFE002436F8142029460120E6
:10092C00013405F0B3FE322CF6D10AB0BDE8F081EB
:10093C00343400201698030070380020909803007F
:10094C009D980300002004403D9803007F9803000D
:10095C00C6980300D2980300A8330020DA9803004D
:10096C000C380020912808B504D100200BF0FCFEB7
:10097C00002008BD9028FBD100200BF0E3FEF7E728
:10098C0007B5054B0090054A0549012005F07EFE90
:10099C0003B05DF804FB00BF6B0E0400FD98030070
:1009AC000299030007B500230093044A044B054940
:1009BC00012005F06BFE03B05DF804FB0598030005
:1009CC006B0E040002990300FFF700BD09B9FFF795
:1009DC00FDBC70477FB506460D4601201449012425
:1009EC0005F054FE0DF10E03009400220621304652
:1009FC0002F036FD9DF80E30BBB1B5B904AB2A46FA
:100A0C0003F8015D08210094304602F029FD60B91D
:100A1C009DF80F2007492046013A05F037FE9DF856
:100A2C000F00013880B207F057FB04B070BD00BF57
:100A3C00AD950300E695030008B579B908482BF08D
:100A4C00FFFE01F063F8022808D12FF071F8054978
:100A5C000246BDE80840012005F018BE08BD00BFE5
:100A6C0034340020989503002DE9F34104461849CD
:100A7C00184F194E012005F009FE204607F010F919
:100A8C00164C0025A046C5EBC50343443946B3F8C4
:100A9C000520012005F0FAFD6178E37822790191B7
:100AAC00A17800910120314605F0F0FD013514F8D4
:100ABC00072B0B49012005F0E9FD102DE3D104496A
:100ACC00012005F0E3FD012002B0BDE8F08100BF7C
:100ADC0016980300909803009D980300703800202E
:100AEC00C698030010B505490446012005F0CEFD5B
:100AFC00204607F025F9012010BD00BF5C960300CD
:100B0C002DE9F34781462349234DDFF8A4A00120AA
:100B1C0005F0BCFD0024A84635F814201AB3514644
:100B2C00012005F0B3FD35F814301C4E0093032260
:100B3C0004211B4B012004F03DF81A4B37685B88ED
:100B4C003B80002001F0F2FD3368387101265E71A4
:100B5C0000F0D8FF0146002004F0AAF81249024622
:100B6C00304605F093FD0134322CD5D1484607F0C0
:100B7C0039F906F07DFE0D4D002438F81420294675
:100B8C000120013405F082FD322CF6D1012002B097
:100B9C00BDE8F087859603000C3800205C2200200D
:100BAC0049BC0300F4390020BB960300DE96030019
:100BBC00A4960300F0B52D498BB00546012005F035
:100BCC0065FD2B48002442F2107104702BF044FE9A
:100BDC00294608A807F05AF99DF820709DF8216065
:100BEC009DF822509DF823309DF824200095CDE9E6
:100BFC0001672049012005F049FD23462246214684
:100C0C002046CDE90274CDE90056ADF81C408DF8B4
:100C1C0016408DF817408DF818408DF819508DF846
:100C2C001A608DF81B70ADF81E4007F031FB0DF10A
:100C3C001E0303930DF11B0302930DF11A03019391
:100C4C000DF1190300930DF1170206AB0DF116010E
:100C5C0007A807F04FFB009733462A4606490120A8
:100C6C0005F014FD01200BB0F0BD00BF3997030057
:100C7C002C340020619703007397030010B50649CC
:100C8C000446012005F002FD044B20461C8007F0B1
:100C9C0023FA012010BD00BF3B960300283400202E
:100CAC0008B5044B044918801A88012005F0EEFCA5
:100CBC00012008BDEA1A00208B97030008B50349F0
:100CCC00012005F0E3FC012008BD00BF17960300CE
:100CDC002DE9F041024604460D490E4E0E4FDFF849
:100CEC003C80012005F0D2FC013C00253378AB425E
:100CFC0002DC0120BDE8F08114F8012F39460120F7
:100D0C0005F0C4FC237805F808300135EEE700BF88
:100D1C0009970300E81A00202C970300A033002049
:100D2C0008B502460449012005F0B0FC034806F062
:100D3C00CDFC012008BD00BFF4950300A0330020BA
:100D4C0070B50646104614460D4605F061F80023B2
:100D5C0033702046A847BDE8704005F048B8000045
:100D6C00012202490248FFF7EBBF00BFC538010062
:100D7C0008390020012202490248FFF7E1BF00BFF9
:100D8C0027B20100F8380020012202490248FFF77F
:100D9C00D7BF00BF79430100E83800200122024987
:100DAC000248FFF7CDBF00BF51660100103900208B
:100DBC00022202490248FFF7C3BF00BFC538010039
:100DCC0000390020022202490248FFF7B9BF00BFD8
:100DDC0027B20100F0380020022202490248FFF736
:100DEC00AFBF00BF79430100E03800200122024967
:100DFC000248FFF7A5BF00BF41B101001C3900201C
:100E0C00022202490248FFF79BBF00BF41B101001B
:100E1C0024390020F22202490248FFF791BF00BF9B
:100E2C0041B101002C39002008B501202BF034FE13
:100E3C0002482BF0A7FD024B187008BD74990300F3
:100E4C001839002008B504F0C5FD012805D0034B66
:100E5C001878BDE808402BF079BD08BD1839002082
:100E6C0010B50C1E03D12BF0EBFC002010BD02DBE7
:100E7C002BF0F2FCF9E70220F8E7B1F5000F02D2F3
:100E8C000902FFF7EDBF0220704700002DE9F04189
:100E9C009846154B154F1B8800264FF00C0CF4B2DE
:100EAC009C4202D30220BDE8F0810CFB04F57C19B6
:100EBC007D5D854205D165888D4202D125799542AB
:100ECC0001D00136EBE701F05DFB0028EAD041468A
:100EDC00A068FFF7C5FF0028E4D19DF818306371B6
:100EEC009DF81C30A371DEE7441B0020F01A002093
:100EFC0013B59DF81040CDE9003413460122FFF7DD
:100F0C00C5FF02B010BD13B59DF81040CDE90034FB
:100F1C0013460022FFF7BAFF02B010BD07B500233D
:100F2C000093FFF7F0FF03B05DF804FB0E4BF0B538
:100F3C001F880E4E00254FF00C0CEBB2BB4201D3B8
:100F4C000220F0BD0CFB03F3F418F35C834205D1D3
:100F5C0063888B4202D12379934201D00135ECE7AF
:100F6C00A36800201870ECE7441B0020F01A002046
:100F7C000122FFF7DBBF0022FFF7D8BF2DE9F04FAE
:100F8C001E4693B0FF23022E0746884614461C9D2E
:100F9C009DF874A08DF81E3040F2CA802B785A0749
:100FAC002DD5042E40F2C48095F804B0654A002378
:100FBC0002EBC3015FFA83F90979FF2908D00133E9
:100FCC000A2BF5D1209B002B40F0B6804FF0FF0987
:100FDC00002308AA0DF11F0120798DF81F3003F0B2
:100FEC008DFC78B1BDF82C3023809DF81F0004F0E7
:100FFC00F7FE8DF81D00C8B113B0BDE8F08F95F861
:10100C0002B0D3E7207901F0D9FAFF28059000F05F
:10101C009180207904F0FCFE8DF81D000028EBD1A6
:10102C00059B494800EB0310438823806188238883
:10103C004FF6FF72002F08BF4246CDE9001258460A
:10104C005246002107F0F6FB18B1E38843F0200369
:10105C00E380209B0F950DF11D010DA8CDE90D34FA
:10106C00ADF84080ADF842608DF844708DF845A025
:10107C0003F095FC10B19DF81D00BDE7284607F064
:10108C0031FBA01D07F01CFB22464146384607F0F9
:10109C00E1FC80B2B0422DD39DF87C300393BDF8B7
:1010AC00783002930DF11E03CDE900532246F3B2C2
:1010BC004146384600F0BFFE8DF81D00209A9DF881
:1010CC001D304AB3D3BB9DF81E20FF2A09D0B9F1BD
:1010DC00090F06D81B4B03EBC9010A71209A43F880
:1010EC0039209DF81D3013B9112003F0E5FB04F0F5
:1010FC007EFEC0E7BAF1000F0AD10DF11E03CDE957
:10110C00006322462B464146384610F09BFCD3E741
:10111C0074238DF81D30D1E7BA2BE2D1E388DB06BE
:10112C00DFD5002301208DF81D3004F059FCD8E7E1
:10113C00012061E7A3205FE7B4205DE7BA2BEDD077
:10114C00D5E700BF08220020F43900200023054A0F
:10115C0010B51946FF24D018047199500833502B40
:10116C00F9D110BD0822002010B586B008810A9C68
:10117C0004949DF824400394BDF82040029401246B
:10118C00CDE9003413460A4601460420FFF7F6FE6B
:10119C0006B010BD10B586B00881089C04940024DC
:1011AC00CDE902440124CDE9003413460A46014638
:1011BC000320FFF7E3FE06B010BD13B50024009426
:1011CC00FFF7E8FF02B010BD2DE9FF410F46904636
:1011DC00054688B381B37AB300266946F0B222F093
:1011EC0055F8044630B99DF80030032B06D0013673
:1011FC00032EF2D1204604B0BDE8F0819DF8012009
:10120C002B799A42F3D1BDF802206B889A42EED129
:10121C009DF806309DF8050000EB032080B29DF888
:10122C0004306B71288143463A462946FFF7C5FFC7
:10123C000028DCD00446DDE70224DBE710B586B0DD
:10124C00089C04940024CDE902440124CDE9003427
:10125C0013460A4601460620FFF790FE06B010BD65
:10126C0010B586B00A9C04949DF824400394BDF8F4
:10127C00204002940124CDE9003413460A4601466D
:10128C000520FFF77BFE06B010BD13B500240094BB
:10129C00FFF7D4FF02B010BDF0B502288BB00546A5
:1012AC000E4614461F460AD106A9F0B221F0EEFFF5
:1012BC0098B99DF8193023719DF81C306371119BFE
:1012CC0004930022109B0192CDE902220093224646
:1012DC003B4631462846FFF751FE0BB0F0BD13B527
:1012EC0000240194049C0094FFF7D6FF02B010BDBB
:1012FC002DE9F04306468BB00F46904699460025E3
:10130C0006A9E8B221F0C2FF044630B99DF81830A6
:10131C00012B06D00135032DF2D120460BB0BDE8D0
:10132C00F0839DF8192033799A42F3D1BDF81A2035
:10133C0073889A42EED19DF81C307371CDE9030984
:10134C00CDE90100CDF800803B463246A9B202201F
:10135C00FFF714FE0028DDD00446DEE7F0B587B0B9
:10136C00074614460E461622002168461D4604F018
:10137C005BFCADF80C70ADF80A40F6B108223146B2
:10138C000DF1010004F0F4FBBDF8143043F002033E
:10139C00ADF8143000238DF80030BDF83430ADF8C2
:1013AC000E300F9ABDF83030BDF83810ADF8103053
:1013BC00684612F0FDFC07B0F0BD1DB1ADF812503F
:1013CC000C23E8E74FF6FB739C428CBF08240024E7
:1013DC008DF80040E1E7000007B5094A0346108884
:1013EC0031B9084A084903B05DF804EB05F06AB955
:1013FC000091064A064905F065F903B05DF804FB57
:10140C00FA2200202EDC03002EA00300D2DC030005
:10141C0035A003007FB505460E462CF011FE2A467A
:10142C00044603460C49022005F030F98CB986B10C
:10143C0001238DF80E3003230093224603AB362193
:10144C004FF6FC708DF80C408DF80D5008F0A6FE90
:10145C000446204604B070BD17A00300FF2810B549
:10146C000C4604D10220044905F010F9FE20214657
:10147C00BDE81040FFF7CEBFD4A10300F8B51F465E
:10148C000B8806460D461446002B63D14A8811047E
:10149C0048BF63783049042005F0F8F86B8848F2AF
:1014AC000402934232D00FD848F2010293423ED04C
:1014BC0048F20202934242D0132B0ED1A2786378E9
:1014CC00264903EB022223E048F20602934223D082
:1014DC0032D348F22002934226D03B46224629467C
:1014EC00304600F002FE40B96A8848F221039A4265
:1014FC0003D16178304603F00DFA6B88B3F5004FD9
:10150C0002D9082003F05AFA012024E0144A1549A4
:10151C00042005F0BBF8E0E7134A1249042005F05B
:10152C00D1F822791149F3E762781149F0E71149B2
:10153C00042005F0ABF8D0E722790F49E8E70F4A11
:10154C000849042005F0BEF8A27863780C4903EB37
:10155C000222DDE70020F8BD42A00300B8A0030082
:10156C0067A003006EA003007FA0030085A003000A
:10157C0093A00300CFA00300E9A003000BA103007C
:10158C0010A103002DE9F04188B006460C469046A8
:10159C001F4631F0E9FC0EAB0546009302460FAB3B
:1015AC002146304610F0EAFAB8BB0F9B0493BDF805
:1015BC003830ADF814308DF808600394ADF816503F
:1015CC008DF818808DF8197000F0A4FA8DF81A00B7
:1015DC0000F0A2FA8DF81B0026F077FA8DF81C00AB
:1015EC0002A803F0DAF9C0B9BDF838300F9A2146D9
:1015FC00284605F09DFE80B9BDF838300F9A21467B
:10160C002846FFF73BFF40B9CDE90050BDF8383014
:10161C000F9A3146204607F033F908B0BDE8F08147
:10162C002DE9F04F85B0804689461446BDF83860E8
:10163C000F9D9DF840B01F46002B2CD0434A4449C7
:10164C00022005F03FF82388002B70D040F20912DD
:10165C0093426ED03F4A4049B3F5827F18BF0A4689
:10166C006188009101963D49022005F02BF82388F2
:10167C006BB1022E0BD92B7839493A4A13F0010F72
:10168C0018BF0A46AB783849022005F01BF83749D9
:10169C00022004F0FBFF364A0023114602EBC30084
:1016AC000079584547D152F833A0002301EBC3020F
:1016BC001079584545D1FF201071002241F8332094
:1016CC0047B9238833B9B4F90230002B02DB082068
:1016DC0003F0F2F8012003F071F99DB12878C307EB
:1016EC0010D510F0040004D032460121284604F035
:1016FC0045FBCDE9017000953346224649464046EC
:10170C0001F055FBBAF1000F06D0CDE90057334676
:10171C00224649464046D047334622464946404633
:10172C00CDE90E5705B0BDE8F04F03F0EFB8114A04
:10173C0096E7114A94E701330A2BAFD14FF0000A18
:10174C00B3E701330A2BB1D1BAE700BF9C9F03006A
:10175C00A49F03008A9F0300F19F0300AE9F030028
:10176C008D9F0300959F0300DD9F0300D7C20300EC
:10177C0008220020839F0300879F030070B49DF80C
:10178C0010409DF81460BDF80C500395CDE904365B
:10179C00234670BCFFF744BF962813B504463ED0D1
:1017AC0037D8912846D0942839D0902814D100F0FD
:1017BC00A9F9264B0090264A2649022004F066FF20
:1017CC00BC2C32D12449022004F060FF03F0EFF866
:1017DC0003F0EEF803F0ECF8204619F0DFFA20469F
:1017EC0011F072FC204616F09BFD204614F096FE7C
:1017FC00204613F065FA204613F0EAFE2046FFF768
:10180C00B1F800B31549022002B0BDE8104004F055
:10181C003DBFAF2807D8AB280AD29828DCD1104B93
:10182C000B4A104909E0BC28C0E733F027FED1E78A
:10183C009128F4D1054B064A0B49022004F026FFEF
:10184C0006F07FFEC8E702B010BD00BF21A1030067
:10185C002AA1030031A103003EA1030076A10300DD
:10186C0065A103006DA103005CA1030013B50F4C2F
:10187C00002004F0B5FA23686BB101A800F038FB26
:10188C0048B923681A789DF804309A4203D0012A8B
:10189C0007D1022B05D1032301A8ADF804302DF09C
:1018AC0051FB04F0A4FA02B010BD00BFF4220020DA
:1018BC0010B5044604F099FA204603F082F8BDE80E
:1018CC00104004F094BA00000D4B1B6837B5054668
:1018DC009BB11C780289C37A0A490092012C0A4AEE
:1018EC004FF0010008BF022404F0D0FE2946204628
:1018FC0003B0BDE830402DF0C1BA702003B030BD4C
:10190C00F4220020B8A10300FD98030010B5044692
:10191C0000F0F0F8631E04F10F02002113F8010F20
:10192C00FF2808BF19709342F8D10023237410BD0F
:10193C007FB504AB03E9030000239DF80D509DF81F
:10194C000E6016491C46D8B201EBC0025268EAB9C7
:10195C009DF80C1000919DF80B309DF80A20104951
:10196C00022004F0AFFE25B12A460E49022004F0F5
:10197C00A9FE0D4ABDF808300C49002C18BF2246B0
:10198C00022004B0BDE8704004F080BE11F83000B5
:10199C000133B04208BF1446D5E700BF10A20300C4
:1019AC00F49F030005A00300F09F030009A00300AF
:1019BC00FFF742B810B50EF036FB012300224FF4AE
:1019CC00E131202018F042F90AF052FC04460BF0E9
:1019DC003FF9224603461249012004F057FE0AF053
:1019EC004DFC04460BF042F9224603460D490120FA
:1019FC0004F04CFE0AF03CFC012303FA00F040F228
:101A0C00A17318420BD0084C20780AF03DFC2078CA
:101A1C000AF0F6FC2078BDE810400AF0F7BD10BDC6
:101A2C0044A303005AA30300F11B002037B5002286
:101A3C00114601A802F067FF002847D12AF01EFDCD
:101A4C00034640B12349244A012004F01FFEAA2179
:101A5C0022480AF0F3F904F0B9F9FFF777FB00F02C
:101A6C0075FB00F02DFB0221084605F06DF9FFF720
:101A7C00FDFE03F017FA1A4B1A4C1B4D41F20202F1
:101A8C001A801A4AFF231380194A4FF4004013801E
:101A9C0026F04CFE0AF0AAFF2AF09AFD03F09AFFFA
:101AAC00012801D000F015FB18F022F9FFF7CAF954
:101ABC002021002003F028FC28B1224629464FF6AD
:101ACC00FF7004F0FFFD04F094F9E3E7019803B014
:101ADC0030BD00BFACA203009C9F0300BDA203005D
:101AEC006E21002035A3030040A3030070210020C9
:101AFC0072210020024910237F2209880AF0BCBE03
:101B0C0022ED03002AF032BE2AF03CBE2AF0F8BBCC
:101B1C002AF07EBC31F052BD1FB5684631F032FA66
:101B2C00C8B902A933F0F8F9082269460DEB020096
:101B3C0004F081F810B9002004B010BD02A90120F6
:101B4C0033F0EAF9082269460DEB020004F073F851
:101B5C0090B90120F0E731F007FA4FF6FF73984285
:101B6C00044609D0002033F0EFF98442E3D0012081
:101B7C0033F0EAF98442ECD0FF20DDE738B50546B6
:101B8C0004F046F9044698B94FF4A8532A4609497B
:101B9C00042004F07BFD4FF4A851284608F070FA9D
:101BAC00054902460446042004F070FD04F01FF9B8
:101BBC00204638BD7AA3030086A303007FB50546F3
:101BCC0004F013F92AF0D2FD40B16B88B3F5006F25
:101BDC0004D1681D02F09CFE044616E0284602F073
:101BEC00EBFED8B90446E6B26946304621F04EFB0E
:101BFC0080B99DF800306BB92946304621F0ACFB1A
:101C0C000028E9D075280BD08C2404F0F0F820467D
:101C1C0004B070BD0134032CE5D1F5E78D24F4E755
:101C2C008B24F2E738B5054604F0DFF8284602F0BD
:101C3C00C1FE98B9284621F05DFB68B175280CBF30
:101C4C008B24882423462A460549042004F01EFDD3
:101C5C0004F0CDF8204638BD0446F3E78D24F7E7B1
:101C6C0090A3030037B502A9FF2301F8013D0446F8
:101C7C0002F040FE18B19DF8070003B030BD094BCF
:101C8C0003EB04131D7B25F022FF854201D0FF20BE
:101C9C00F3E7204600F0B4FA0028F8D0204600F014
:101CAC0045FDEAE7F43900202DE9F04107460D46E1
:101CBC0002F022FE0646F0B9384600F07FFCFF2801
:101CCC0019D00E4C04EB001494F80C8025F0FFFE98
:101CDC00804510D163882B80A3886B80A3792B71EE
:101CEC000121384600F028FD31466871384600F075
:101CFC0023FD0126A8713046BDE8F081F43900209F
:101D0C00F8B504460E46154600F058FCFF2802D1E3
:101D1C004FF6FF70F8BD0B4B03EB0010077B25F063
:101D2C00D6FE8742F4D146B901222946204600F05E
:101D3C0029FD0028ECD00088ECE7012EE8D1002228
:101D4C00F3E700BFF439002010B5044604F04DF859
:101D5C002046FFF721FDBDE8104004F048B8000014
:101D6C0037B50C4B1B681C5C94420D460AD900928B
:101D7C002346094A0949022004F088FC0024204625
:101D8C0003B030BD002201460092234628462BF0BA
:101D9C00B5F8F4E76C1C00209C9F030094A2030090
:101DAC00F0B599B0144603AD0F46064604F01DF885
:101DBC00204652222946FFF7D3FF84B28CB10DF195
:101DCC000A0031F0C1F80DF10B0031F0C5F89DF9A6
:101DDC000B309DF80A20CDE9004539463046FFF717
:101DEC00D1FB04F004F819B0F0BD2DE9F0439BB021
:101DFC0014469DF88850894680461F4603F0F5FF2F
:101E0C00294620460FF07AFE80B905AE52223146A3
:101E1C003846FFF7A5FF48B180B20090CDE90167C5
:101E2C002B46224649464046FFF7FAFB03F0DFFFFC
:101E3C001BB0BDE8F0832DE9F74307460E460A9820
:101E4C00BDF830809DF83490194615462BF07EF87D
:101E5C00FF2804463AD00B9B1870062F34D8DFE8C5
:101E6C0007F0040404121929220003462A463146BD
:101E7C00384631F0DFFA054620462AF00BFF28469B
:101E8C0003B0BDE8F0830C2203461146284631F01E
:101E9C00A3FAF0E7EA7A0346CDE900891146284611
:101EAC0031F05CFAE7E703460C222946304631F064
:101EBC00FBF9E0E70190EB7A00934A462B4631465A
:101ECC00404631F015FAD6E70225D5E71825D6E7B6
:101EDC000822014903F04CBE2152002010B50446E3
:101EEC0008462AF021FA2046BDE810402CF026BA0C
:101EFC002CF024BA0520704700207047032070474F
:101F0C00014B1878704700BF841C00204B20704791
:101F1C00024B18685968FFF70BBD00BFCA390400A3
:101F2C0013B5044603F061FF0DF1060031F00CF817
:101F3C000DF1070031F010F89DF907209DF80610FF
:101F4C0020460FF0DBFA30B99DF907209DF80610FA
:101F5C00204616F027FF03F04AFF02B010BD38B53B
:101F6C0004460D4603F041FF294620460FF010FCB5
:101F7C0018B92946204616F025FFBDE8384003F075
:101F8C0036BF38B504460D4603F02FFF29462046D0
:101F9C000FF01EFB18B92946204616F0F1FEBDE8DD
:101FAC00384003F024BF38B504460D4603F01DFF3E
:101FBC00294620460FF034FB18B92946204602F07A
:101FCC0008FDBDE8384003F012BF704700F099B827
:101FDC0070470000014B18700020704758220020F9
:101FEC002DE9F341224B01931646044640B13AB118
:101FFC00002301AA9D5C8D4233D00133042BF9D10F
:10200C00022002B0BDE8F081E35C93FAA3F3014631
:10201C00180E03F0D1FC434603F10108DBB2BB42BE
:10202C00F2DBC2B292FAA2F2C0F30F2393FAA3F33B
:10203C00100E1B0E03EB00236219DB439BB212F84C
:10204C00020CD9B2884211D112F8012CB2EB132F29
:10205C000CD132462146284602B0BDE8F04124F0AE
:10206C00C7BD00234FF6FF708F1ED5E7BD20C8E714
:10207C00080A0E122DE9F041984686B00F4B154612
:10208C00064603A80F461C7822F0E2FF15F0FD0F60
:10209C0012D030B9BDF80C309B0702D5032D08BF08
:1020AC000324304600942B464246394602F08FFCFE
:1020BC00204606B0BDE8F0810324F2E75822002048
:1020CC0008B5FEF717FB06F009FABDE8084012F058
:1020DC00F5BD08B502F019FC06F032FABDE808406F
:1020EC0011F092BB704702F056BC02F05ABC30B4EF
:1020FC00BDF80840BDF80C50CDE9024530BC10F0DD
:10210C0009BC38B504460D4602F066FC294620464B
:10211C0012F0F0FD29462046BDE8384018F0D6BA3A
:10212C0002F041BC02F04BBC10B5074A0123332B23
:10213C00194601D1002006E00233D41814F8034CE0
:10214C008442F4D1505C10BDA6A30300F0B589B055
:10215C0040F20123ADF80030F2234FF480728DF879
:10216C0002301F4B0493ADF808204AF2E013022210
:10217C00ADF814308DF80A201A4B1B4A0693032134
:10218C006123ADF81C3011700023184A184DADF8BE
:10219C0004308DF80630ADF80C308DF80E300DF1A2
:1021AC00100E0DF1180C01AF02AE03AC01201DF89E
:1021BC00031011703EF8131051803CF813109180ED
:1021CC00D95D9171F15C507305EBC1019160195DA2
:1021DC0011730133032B02F11002E8D109B0F0BDE9
:1021EC000401040101010D0159220020F4390020E1
:1021FC0058AC0300014B1878704700BF59220020DF
:10220C00034B03EB0010407B00F00100704700BF54
:10221C00F4390020413803288CBF0020012070477E
:10222C00413801288CBF0020012070474338012819
:10223C008CBF0020012070470A4B0B4A10B5C31A03
:10224C000A489B10584380B200239C5A844202EBEC
:10225C00030101D1488810BD0433242BF5D1002093
:10226C00F9E700BF50A40300D8A30300ABAAAAAAA5
:10227C00054BC31A05489B10584380B2082841F2FD
:10228C00A20018BF0020704700A90300CDCCCCCC15
:10229C000388B3F57C4F01D3FFF7EABF0846FFF77D
:1022AC00CBBF10B54A880488A2420DD1037B0C79B0
:1022BC00234009D0B2F57C4F08D3FFF7D9FF0B8927
:1022CC001B1A5842584110BD0020FCE70120FAE7C8
:1022DC0038B514460D88D28895420AD10388B3F5D7
:1022EC007C4F08D2FFF7D4FF23891B1A5842584160
:1022FC0038BD0020FCE70120FAE700002DE9F04F83
:10230C008BB04FF0000A01939DF850300593714B40
:10231C00DFF8D0911B7804918046154608935746F8
:10232C00089A5FFA8AF39A4201D8862063E099F8FA
:10233C0000300293D9F808300393029A98F80030D1
:10234C00934240F0BF8099F80D30D80709D5039B14
:10235C001B7907934FF0000B079A5FFA8BF39A42A5
:10236C0004D80AF1010A09F11009D9E7039B1E6888
:10237C00142303FB0B6641463046FFF792FF0028FF
:10238C0000F09C8033890693002306999AB29142FF
:10239C0002D80BF1010BDFE7746809930C2202FBE6
:1023AC000344214642463046FFF792FF2279099BAF
:1023BC0000287BD0049B03B11C6091061ED44648B8
:1023CC0009E01A79920642BFD8783F18BFB20C3395
:1023DC009C42F6D84148059B074493B121463046B0
:1023EC00FFF756FF2388B8F802100246029802F055
:1023FC0068FA60BB7E200BB0BDE8F08F0027384B2D
:10240C00E6E7002D35D021463046FFF741FF238803
:10241C00B8F802100246029802F051FA0028E9D0EE
:10242C00DFF8C49028462379DB0615D521463046C3
:10243C00FFF72EFF98F80060B8F8021014950346C9
:10244C0022463046CC460BB0BDE8F04F60473846CC
:10245C00DFF898902F46E6E7019AA3785AB9E2780C
:10246C00A3F14101012908D8013AD2B2394606F04C
:10247C002BFB0020BFE7019AF2E7433B012B05D869
:10248C00023A92B2394606F039FBF2E7059B2BB9BA
:10249C00019B1BB1E37801998B4218D8394617B9C7
:1024AC0003F0C2FBE5E703F063FBE2E712F0300F49
:1024BC0002BFE0783F18BFB2013366E7708907446A
:1024CC00BFB266E7039BD8880744BFB249E78920AF
:1024DC0091E700BF59220020243A00203439002013
:1024EC0050A40300F4390020ED480000F14800002E
:1024FC0010B586B000248DF81030BDF820308DF862
:10250C000C00ADF80E10ADF81220ADF8143000949C
:10251C002346224602A903A80294FFF7EFFE029875
:10252C0006B010BD2DE9F84390F8048006461F460E
:10253C0000254FF01409EBB2984501D8002416E0A1
:10254C0009FB05F033681C181B5A8B4217D12AB1B2
:10255C00802A0FD194F90C00002810DAB3F57C4FC7
:10256C0005D32046FFF784FEB84200D03FB9204681
:10257C00BDE8F883402A02D1207B4006EED4013519
:10258C00D9E7000030B50B4B0B4A1C780023D9B2AD
:10259C00A14201D3002030BD1946013302EB0315D3
:1025AC0015F8105C8542F2D102EB0112507B00F061
:1025BC000100F0E759220020F439002070B50A4BD5
:1025CC000A491D780023DAB2AA4202D3FF22104630
:1025DC0070BD1C016618645C844202D1747BE407F4
:1025EC00F5D40133EFE700BF59220020F439002065
:1025FC002DE9F0410D4616461F46FFF7DFFFFF2879
:10260C000AD0074C04EB00103B4632462946806842
:10261C00BDE8F041FFF786BF0020BDE8F08100BFA8
:10262C00F439002008B513460022FFF7E1FF003013
:10263C0018BF012008BD08B513464022FFF7D8FF8C
:10264C00003018BF012008BD08B513468022FFF7E3
:10265C00CFFF003018BF012008BD08B54022002371
:10266C00FFF7C6FF003018BF012008BD30B5094B7D
:10267C00094C19780023DAB28A4201D3FF2206E012
:10268C00013304EB031515F8105C8542F3D11046A9
:10269C0030BD00BF59220020F43900202DE9F04153
:1026AC000D4616461F46FFF7E1FF054C04EB0010E4
:1026BC003B46324629468068BDE8F041FFF732BF01
:1026CC00F43900202DE9F84F0746884691469A4682
:1026DC00FFF78EFFE0B10F4BDFF83CB01E78002502
:1026EC002C46EBB2B34202D32046BDE8F88F01353D
:1026FC000BEB051313F8100C8742F5D053464A46E2
:10270C004146FFF7CBFF002818BF0134E4B2E8E7DD
:10271C00FF24E9E759220020F43900201346402217
:10272C00FFF7D0BF0022FFF7F9BF0000014B0001FB
:10273C00185C7047F439002070B50D46FFF73EFF6A
:10274C00FF2818D00E4B03EB001082689AB10023BF
:10275C00117918461426DCB2A14200D870BD146859
:10276C0006FB0344247B45B114F0400F1CBF013021
:10277C00C0B20133EFE70020F0E714F0800FF5E76B
:10278C00F43900202DE9F0410F469046FFF716FF73
:10279C00FF280BD0104B03EB001000238568297920
:1027AC001C464FF0140CDAB2914202D80020BDE85E
:1027BC00F08128680CFB0300067BB8F1000F08D0F1
:1027CC0016F0400F03D0BC42F1D00134E4B2013317
:1027DC00E9E716F0800FF5E7F43900202DE9FF4109
:1027EC00054625F072F98046012003F009FB012D06
:1027FC0003D0FF2D7DD180457BD103AC01237F22FB
:10280C00212120460AF0A4FB10230093002223462A
:10281C000621012000F0C1FD01237F222221204648
:10282C000AF096FB3023009344F203022346062160
:10283C00012000F0B2FD202701237F222321204616
:10284C000AF086FB2346002208210097012000F0A5
:10285C00A4FD01237F22242120460AF079FB234684
:10286C004FF4804208210097012000F096FD2126AC
:10287C0002237F22252120460AF06AFB41F2A203A3
:10288C0013224FF61041CDE90046012000F095FDD2
:10289C0002237F22262120460AF05AFB41F2A20392
:1028AC0017224FF61041CDE90046012000F085FDBE
:1028BC0001237F22272120460AF04AFB41F2A20382
:1028CC0018224FF61041CDE90047012000F075FDAC
:1028DC0002237F22282120460AF03AFBCDE900464C
:1028EC0041F2A2034FF6FD724FF61041012000F0A9
:1028FC0064FD022003F084FA022D03D0FF2D58D181
:10290C00804556D101237F22292103A80AF020FB00
:10291C0010230093002203AB0621022000F03DFDA2
:10292C0001237F222A2103A80AF012FB30230093F3
:10293C0044F2030203AB0621022000F02EFD2024FA
:10294C0001237F222B2103A80AF002FB009403AB86
:10295C0000220821022000F020FD01237F222C21DF
:10296C0003A80AF0F5FA009403AB4FF48042082157
:10297C00022000F012FD212402237F222D2103A826
:10298C000AF0E6FA03AB07224FF4407100940220E0
:10299C0000F003FD02237F222E2103A80AF0D8FAAF
:1029AC00009403AB44F210024FF44071022000F08B
:1029BC00F4FC04B0BDE8F0812DE9F3411C461B7911
:1029CC0016469A0705460F462FD50DF1040802222C
:1029DC000021404603F028F9002D08BF4546012F81
:1029EC0040F09980062E23D1238863B92046FFF747
:1029FC0023FC40B923795B0605D43B462A467F214C
:102A0C0021200AF0BBFA228844F203039A420CD12B
:102A1C002046FFF711FC40B923795F0605D401234A
:102A2C002A467F2122200AF0A9FA02B0BDE8F081E3
:102A3C00082E1FD1238863B92046FFF7FDFB40B950
:102A4C0023795E0605D43B462A467F2123200AF0D3
:102A5C0095FA2388B3F5804FE7D12046FFF7ECFBBE
:102A6C000028E2D123795806DFD401232A467F219E
:102A7C002420D8E74FF610439E42D6D12388132B3F
:102A8C000FD12046FFF7D8FB41F2A203984208D1A0
:102A9C002379590605D402232A467F2125200AF0E2
:102AAC006DFA2388172B0FD12046FFF7C5FB41F297
:102ABC00A203984208D123795A0605D402232A4648
:102ACC007F2126200AF05AFA2388182B0FD1204692
:102ADC00FFF7B2FB41F2A203984208D123795B06BF
:102AEC0005D401232A467F2127200AF047FA2288A1
:102AFC004FF6FD739A4298D12046FFF79DFB41F2A9
:102B0C00A203984291D123795F068ED402232A46E0
:102B1C007F21282087E7022F87D1062E23D12388F7
:102B2C0063B92046FFF788FB40B923795E0605D4CC
:102B3C0001232A467F2129200AF020FA228844F218
:102B4C0003039A427FF471AF2046FFF775FB002810
:102B5C007FF46BAF23795C063FF567AF01232A4600
:102B6C007F212A205FE7082E22D1238863B92046D3
:102B7C00FFF762FB40B92379580605D401232A4696
:102B8C007F212B200AF0FAF92388B3F5804F7FF4CC
:102B9C004CAF2046FFF750FB00287FF446AF23795B
:102BAC0059063FF542AF01232A467F212C203AE7F4
:102BBC00B6F5407F7FF439AF2388072B0CD1204624
:102BCC00FFF73AFB40B923795A0605D43B462A460F
:102BDC007F212D200AF0D2F9228844F210039A4268
:102BEC007FF423AF2046FFF727FB00287FF41DAFAF
:102BFC0023795B063FF519AF02232A467F212E204D
:102C0C0011E700002DE9F04F8BB08046039124F0C2
:102C1C005CFF444B04901B7805930024059B9C425D
:102C2C0035D2B8F1FF0F0BD04046FFF7C7FCFF2899
:102C3C00044631D03C4B4FF0000903EB041B1CE065
:102C4C00394B049A03EB04131B7B9342F2D00134EF
:102C5C00E4B2E3E71B68142202FB05352B89B3F5BC
:102C6C00967F01D909F0C2FE4FF0000A2A891FFA9B
:102C7C008AF39A4213D809F10109DBF808301A7962
:102C8C005FFA89F5AA42E5D8B8F1FF0FDFD0039BB4
:102C9C0013B94046FFF7A2FD0BB0BDE8F08F0C2234
:102CAC001FFA8AF353436A68D7183E79F1062FD47A
:102CBC009BF800108DF81C102988ADF81E1016F02A
:102CCC00400F0CBF402180218DF82010D35AADF855
:102CDC00223039462846FFF7DBFA7207ADF824009C
:102CEC00FB7818D5022BBE6800D9366801230093F7
:102CFC0000231946324607A8FFF700FB039B3BB1A4
:102D0C003B46BDF81E209BF800103046FFF754FEE2
:102D1C000AF1010AAAE7022B94BF07F10806BE6864
:102D2C00E4E700BF59220020F43900200021FFF70E
:102D3C0069BF10B501210446FFF764FF2046BDE8CA
:102D4C001040FFF7CFB910B5047B14EA010310D083
:102D5C00002201238B4203D3036953F8220010BDD8
:102D6C001C4218BF01324FEA430318BFD2B2DBB288
:102D7C00F0E71846F3E7F8B516461F469DF81820FD
:102D8C00BDF81C300546FFF733FC78B10421FFF782
:102D9C00DAFF044650B1284603F03AF83A46314679
:102DAC002846A047BDE8F84003F021B8F8BD2DE94E
:102DBC00F74F0C9D9DF834B01F4681468A46BDF8EE
:102DCC003830144612B30DB307B392F804802A7846
:102DDC00618812F0080F14BF402280224046FFF792
:102DEC0007FC98B10821FFF7AEFF064670B14046CC
:102DFC0003F00EF8CDE9005B3B46224651464846AF
:102E0C00B04703B0BDE8F04F02F0F1BF03B0BDE82E
:102E1C00F08FF8B5BDF8185017461A462B460446E5
:102E2C00FFF7E6FBE0B175B90221FFF78CFF054611
:102E3C00B0B1204602F0ECFF39462046A847BDE869
:102E4C00F84002F0D4BF1021FFF77DFF064638B1E1
:102E5C00204602F0DDFF2A4639462046B047EEE711
:102E6C00F8BD73B5BDF8184016461A4623460546FC
:102E7C00FFF7BEFBB8B1C4B92021FFF764FF0446CD
:102E8C0070B1284602F0C4FF099B00939DF81C20EA
:102E9C009DF8203031462846A047044602F0A7FF93
:102EAC00204602B070BD8624FAE70024F8E72DE92D
:102EBC00F04186680446007802F0AAFF002514272A
:102ECC003279EBB29A4203D8BDE8F04102F08FBFE1
:102EDC007B4332682078D15A02EB030801F0F3FCF3
:102EEC0001214046FFF72FFF034608B12078984791
:102EFC000135E5E770B5084D084E00242B78E0B29B
:102F0C00834200D870BD06EB0010437BDB0701D574
:102F1C00FFF7CDFF0134F1E759220020F4390020EE
:102F2C002DE9F0411E4B06461E480C46197800232D
:102F3C00DAB28A4203D300242046BDE8F0815A1C41
:102F4C0000EB021515F8105CB54201D01346EFE703
:102F5C0000EB0310437B03F001022CB143F001039F
:102F6C00437342B10124E7E74473002AFAD00546C3
:102F7C004FF014080DE0FFF79AFFDDE71B6808FB24
:102F8C0004F41A19195B127B3046D209FDF7CEFFF7
:102F9C003C46AB681A79671CE4B2A242EED8E1E772
:102FAC0059220020F439002010B5094B094AC01AE7
:102FBC00C0F38F0000239C5A844202EB030101D121
:102FCC00488810BD0433242BF5D10020F9E700BF4D
:102FDC0068AA0300FCA303002DE9F04F85B00F464F
:102FEC009346BDF8382001929DF840107C7D88B343
:102FFC00ACB3012C18BF04249DF84480DFF88890F2
:10300C00002635461FFA88F836F80900584519D1BC
:10301C0009EB060090F803E01EEA040F12D090F8BA
:10302C0002A08A450ED31EF0100FFA7B19D04AB1BC
:10303C00CDE90231FFF7B8FFB7F810C08445DDE9E0
:10304C00023110D00436B6F5AE7FDDD1012005B0CB
:10305C00BDE8F08F002C14BF04240824CCE7022414
:10306C00CAE7002AEED1A8450BD0019AAA4208D98A
:10307C0003F805A00F9A1088013501301080ADB20D
:10308C00E0E70020E3E700BF68AA03002DE9F04F5A
:10309C0089B01D46BDF848409DF8503001939346C9
:1030AC0023462A4607460E46FFF7A2FA8DF81470FF
:1030BC00ADF816608DF81850ADF81AB0ADF81C408C
:1030CC00814618B9012009B0BDE8F08F05A9FFF7BA
:1030DC00E8F80028F6D09DF84C3000259BB22E461F
:1030EC002F462C46029336E00C231FFA85F8B9F8CC
:1030FC00002003FB08F8D9F80430B2F57C4F03EB41
:10310C00080A1AD333F8080058452ED3029BA34261
:10311C002DD902F0D5FD9AF8020002F0BDFD019BFD
:10312C0043B19AF8043013F0010F0CBF05200720AF
:10313C0002F0B2FD0134A4B219E033F80820ADF866
:10314C001A20514605AA48460393FFF7C1F8039B82
:10315C000028D7D10135B9F80820ABB29A42C3D8B0
:10316C003C44A31B58425841ADE70137BFB201366E
:10317C00B6B2EFE72DE9F04F8FB098469DF870305E
:10318C0006930023BDF860908DF82C00ADF82E103E
:10319C00ADF83220009305460E46174608A91A468C
:1031AC000BA80893199C9DF868B09DF86CA08DF83D
:1031BC003080ADF83490FFF7A1F8089B002B00F09D
:1031CC009880BAF1000F07D19A785A4540F0948054
:1031DC001A79D10740F193801A79520735D59A683C
:1031EC005168926809910A92987805F003FD089B42
:1031FC00059093F803A0BAF1020F17D80346524674
:10320C00214609A805F09BFC059B079052462146D8
:10321C000AA805F094FC079B012B01D0013014D1B6
:10322C004FF0870A50460FB0BDE8F08F059B099808
:10323C005246214605F083FC0128F1D0059B0A98E3
:10324C005246214605F07BFCE8E7069B002B59D142
:10325C00089B0394DB78CDF80090CDE901B33A4696
:10326C0043463146284601F092FB82460028D9D1CC
:10327C00089B0394DB78CDF80090CDE901B33A4676
:10328C00434631462846FFF7ECFD82460028C9D15B
:10329C0001230093069B224619460BA8FFF72EF834
:1032AC0082460028BED1089B324629462046FFF7AD
:1032BC0083FB43463A4631462846CDE901B4CDF866
:1032CC00009015F039FA089B0394DB78CDF8009048
:1032DC00CDE901B33A4643463146284601F056FB48
:1032EC00CDF8009043463A4631462846FFF791FD0B
:1032FC0098E74FF0860A95E74FF08D0A92E74FF06A
:10330C00880A8FE74FF0000A8CE72DE9F04786B06A
:10331C0007460F9D9DF84060BDF838400094CDE9FC
:10332C000156884691469A4601F0C7FA98B1022890
:10333C000ED84FF00003049308BF0123CDE90263BC
:10334C00CDE9004553464A4641463846FFF712FF41
:10335C0006B0BDE8F0870120FAE730B587B000244D
:10336C000125CDE903549DF82C5002950A9DCDE919
:10337C000045FFF7FFFE07B030BD30B587B0002425
:10338C000125CDE903549DF828500094CDE9013571
:10339C008023FFF7EFFE07B030BD30B587B00024B7
:1033AC000125CDE903549DF828500094CDE9013551
:1033BC004023FFF7DFFE07B030BD10B586B04FF0ED
:1033CC00000C0124CDE9034C9DF824400294089C88
:1033DC00CDE900344023FFF7CDFE06B010BD10B58B
:1033EC0086B04FF0010C0024CDE9034C9DF8284029
:1033FC000294099C0194BDF820400094FFF7BAFE9A
:10340C0006B010BD30B587B000258DF81030BDF872
:10341C0028308DF80C00ADF80E10ADF81220ADF878
:10342C0014300095BDF830300B9A0D9C029502A912
:10343C0003A8FEF763FF18B914B1029B9B782370A5
:10344C0007B030BD1FB5089C03949DF81C40029436
:10345C00069C019400240094FFF7D4FF04B010BD27
:10346C0030B585B000249DF820500394CDE901358A
:10347C0000944023FFF7C6FF05B030BD2DE9F04F97
:10348C00DFF8CCB0A9B04FF00008FEF7B3FE5FFA3E
:10349C0088F5A84202D829B0BDE8F08F2D010BEBBE
:1034AC0005034FF0000904930BEB05035FFA89F455
:1034BC009B681A79A24202D808F10108E5E71B685B
:1034CC00142202FB043400262289B3B29A4202D899
:1034DC0009F10109E8E70C231FFA86FA03FB0AFA43
:1034EC006368059303EB0A0709F080FA3946204616
:1034FC00FEF7CEFE049B218893F800C0059B33F8A1
:10350C000A203B794FF0000E13F0400F0DF11C0A0E
:10351C004FF08103CDE9023ECDE9000A14BF8023B0
:10352C0040236046FFF76EFF862806D0B878FEF77A
:10353C0077FE20B1504602F039FC0136C4E7B8786A
:10354C00FEF774FE0028F8D0504602F034FCF4E785
:10355C00F4390020F0B5A7B01646BDF8B470042FAE
:10356C0048D90DF1130403948124029405ADBDF8E0
:10357C00B04000940195FFF745FF0446A0BB9DF8B1
:10358C001300A0F14103012B21D8284602F00EFCB8
:10359C000130C4B2E31CBB422CDA304602F090FB83
:1035AC00154E002002F078FB9DF8130002F074FB1E
:1035BC0033881A19FE2A1DDC1048A4B2224618447E
:1035CC00294602F0D5FA30880444348012E0A0F188
:1035DC004303012B04D8284602F0EDFB0230D8E758
:1035EC00FEF7A2FD0446D5E7304602F069FB204603
:1035FC0002F052FB27B0F0BDE03C0020F03C002074
:10360C0038B5C37B05460BB1832038BDC47C2CB9BF
:10361C0006F06AFE20B9EB7B002BF5D18120F4E794
:10362C002046F2E7C37B10B504460BB1832010BDD6
:10363C00C37C012B13D003D3402B13D08120F6E78E
:10364C00017D82898B1C9A4218D3806802F096FB0C
:10365C0010F050F9A0B9E37B002BE7D1EEE710F0A6
:10366C0061F9F7E7037D81899A1C914206D3826840
:10367C00591CD05C515C17F0D9FCEBE78020D6E7E5
:10368C000020D4E7F8B5C37B04460BB18320F8BD0A
:10369C00C37C052B29D8DFE803F0032A35414C4FB6
:1036AC00057D8289AB1C9A4201D28020EFE7ADB236
:1036BC002946806802F062FB0646A068A78902359D
:1036CC00284402F073FB284401308742EDD329468D
:1036DC00A289A06802F058FB014630460FF05AFE52
:1036EC00002848D1E37B002BD0D18120CFE7017D8E
:1036FC0082898B1C9A42D8D3806802F03FFB0FF072
:10370C0069FEEDE7037D81895A1C9142CDD3826815
:10371C00591C1144D05C0FF08DFEE1E7017D8289CC
:10372C008B1C9A42C1D3806802F028FB0FF004FF77
:10373C00D6E70FF05DFFD3E7057D8289AB1C9A427B
:10374C00B3D3ADB22946806802F018FB0646A068D8
:10375C00A7890235284402F029FB2844013087420E
:10376C00A3D32946A289A06802F00EFB014630467D
:10377C000FF086FFB4E7002089E7C37B2DE9F74300
:10378C000446002B40F02C81C37C042B00F0B78046
:10379C000BD8012B00F088803FD3022B00F09480D3
:1037AC00032B00F0A18081203DE0402B00F0C8806D
:1037BC000FD8052B00F0B380062BF4D1017D828944
:1037CC008B1C9A422ED3806802F0D8FA15F0EEFCCE
:1037DC0061E0412B00F0F380422BE4D1037D828920
:1037EC00D91D8A421ED39DB28068691CC65C02F04A
:1037FC00C5FAEB1C0746A068A28910F80380291DA6
:10380C0002F0BCFA0635A3685B5D009342460346A2
:10381C003946304617F0F2FE3DE0057D8289AB1C3F
:10382C009A4203D2802003B0BDE8F083ADB22946A2
:10383C00806802F0A3FAA289E91C8A42064605F1C7
:10384C000203EFD3881C8242ECD3A068C75C02F061
:10385C0095FA8046A068B4F80C900535284402F01F
:10386C00A5FA284401308145DCD32946A289A068F9
:10387C0002F08AFA8146A068284402F097FA0130D7
:10388C000544A06810FA85F500954B46424639462A
:10389C00304616F0A3F8002840F0A480E37B002B00
:1038AC0014BF83208120BEE7057D8289EB1C9A42E0
:1038BC00B8D3ADB22946806802F060FA0235A3682D
:1038CC00595D16F071F9E6E7057D8289EB1C9A4289
:1038DC00A8D3ADB22946806802F050FA0235A3682D
:1038EC00595D15F08DFBD6E7017D82898B1C9A42C0
:1038FC0098D3806802F042FA15F0F0FBCBE7057D17
:10390C008289EB1C9A428DD3ADB22946806802F0B5
:10391C0035FA0235A368595D15F094FDBBE7057DBA
:10392C008289EB1C9A42FFF47DAFADB229468068C8
:10393C0002F024FA0235A368595D15F05BFEAAE784
:10394C00057D8289AB1C9A42FFF46CAFADB229465F
:10395C00806802F013FAA289E91C8A42064605F136
:10396C000203FFF45FAF881C8242FFF45BAFA068D8
:10397C00C75C02F003FA8046A068B4F80C900535D9
:10398C00284402F013FA284401308145FFF44AAF71
:10399C00A289A068294602F0F7F98146A06828445C
:1039AC0002F004FA01300544A06810FA85F5009580
:1039BC004B4642463946304617F008FE6BE7057D0C
:1039CC008289EB1C9A42FFF42DAFADB22946806878
:1039DC0002F0D4F90235A368595D17F007FE5AE7D7
:1039EC00832020E700201EE7F8B5C37B04460BB10B
:1039FC008320F8BDC37C022B21D004D8ABB1012BA2
:103A0C001AD08120F5E7412B1CD0422B1DD0402B26
:103A1C00F7D1037D81899A1C91422DD38268591C60
:103A2C00D05C515C17F04CFC01E011F069FF28BB35
:103A3C00E37B002BE5D0DBE711F078FFF7E711F023
:103A4C008BFFF4E717F082FCF1E7037D8289591DA7
:103A5C008A4211D39DB28068691CC65C02F08EF953
:103A6C00A2890746E91CA06802F088F9394602468B
:103A7C00304617F0ABFCDAE78020BAE70020B8E755
:103A8C00C37BF7B50446002B40F0D180C37C072BD9
:103A9C0000F2CF80DFE813F00800370059008500F2
:103AAC009A00A900B500C800037D8289591C8A427E
:103ABC00C0F0C1809DB2691C881C8242C0F0BB80E2
:103ACC00A068C75C02F05AF9EB1CA6895A1C9642F6
:103ADC0022BFA268D25C2B1D014603F1010038BF46
:103AEC00FF2286422ABFA068FF23C35C384610F031
:103AFC00DDFC002840F0A180E37B002B14BF832069
:103B0C00812003B0F0BD067D8589731C9D42C0F0F9
:103B1C009280B7B2BA1C954207F10103C0F08B80BA
:103B2C008068C15C13460132954224BFC25CFB1C09
:103B3C0003F1010738BFFF22BD4228BFC35C805D83
:103B4C0038BFFF2310F0CFFCD3E7037D8289591CCB
:103B5C008A4270D39DB2A91C8A4205F101076AD32F
:103B6C00881C824267D3A068C65CC75D02F006F968
:103B7C00291DB4F80CC04B1C9C4522BFA3685B5C90
:103B8C00691D024601F1010038BFFF2384452ABF9D
:103B9C00A068FF21415C00913046394610F0BBFC17
:103BAC00A7E7027D8189501C814293B222BFA06895
:103BBC000133805C03F1010238BFFF2091422ABF20
:103BCC00A268FF21D15C10F0C2FC92E7017D8289D2
:103BDC00CB1C9A422FD38068455C013102F0CEF8A1
:103BEC000146284610F070FC83E7037D81899A1CFE
:103BFC00914220D38268591CD05C515C10F07FFC40
:103C0C0077E7037D8289191D8A4214D3806899B2A3
:103C1C00C55C4B1C0231C65C02F0B0F83146024662
:103C2C00284610F086FC64E710F099FC61E78320CD
:103C3C0067E7812065E7802063E7002061E72DE9D5
:103C4C00F04FC37B8FB004461BB183200FB0BDE88F
:103C5C00F08FC37C0B2B4DD8DFE813F00C00550014
:103C6C0030014C004C004C0057014C004C004C00F7
:103C7C00C301D701037D8289581C824224BFA068EE
:103C8C0010F8038099B234BF4FF0FF08013118F0DF
:103C9C00070509D10F1DBA422FD3A06802F068F8AE
:103CAC00B9B20646FF2711E0022D25D101F1080318
:103CBC009A42C0F0DF81A5680D4499B24B1C9A4220
:103CCC001BD3A2684FF0FF36575C99B2A2890B1D2B
:103CDC009A4215D3A06802F04BF800903B462A4656
:103CEC00314640460EF02CFB002840F0C181E37BAE
:103CFC00002BAAD18120A9E700254FF0FF36D1E790
:103D0C004FF0FF30E9E7037D82899DB203339A427D
:103D1C0018D32946806802F02EF80335064616F0B3
:103D2C00070712D1A28905F104084245C0F0AD8005
:103D3C002946A06802F01CF81FFA88F583464FF05C
:103D4C00FF0A18E04FF0FF36E9E7022F40F09C80A5
:103D5C00A28905F108039A42C0F08E81A7682F440E
:103D6C009DB26B1C9A42C0F09080A2684FF0FF3B52
:103D7C0012F805A09DB216F0100340F0898016F0E1
:103D8C00600903D0B9F1600F40F07B81A28905F185
:103D9C0008039A42C0F07281A168294409919DB22E
:103DAC00B9F1000F03D0B9F1600F40F06B81AB1C7F
:103DBC009A42C0F06C812946A0680A9301F0DEFF9C
:103DCC000A9B80469DB2B9F1200F02D0B9F1400F89
:103DDC0062D1A289AB1C9A420A935DD32946A06892
:103DEC0001F0CCFF0A9B81469DB206F01803082B0C
:103DFC0055D1A2896B1C9A4251D3A268525D0A928A
:103E0C009DB271044ED5A2892B1D9A424AD32946E4
:103E1C00A0680C9301F0ACFF0C9B0B909DB216F4B8
:103E2C00004344D0A28905F110039A423ED3A26804
:103E3C002A440C929DB2F2033BD5A289AB1C9A4248
:103E4C0037D32946A0680D9301F098FF0D9B9DB2C6
:103E5C00B30331D5A2896B1C9A422DD3A3685B5D49
:103E6C00CDF80480CDE906030C9B05930B9B0493C2
:103E7C000A9BCDE90293099B00933A465346594657
:103E8C0030460EF05FFA2FE700274FF0FF3B56E766
:103E9C0000234FF6FF7809934FF6FF79A5E7FF2330
:103EAC000A93AEE74FF0FF330B93B8E700230C9364
:103EBC00C1E74FF6FF70CBE7FF23D1E7017D828985
:103ECC00481C824224BFA068455C8BB234BFFF25DE
:103EDC000133A90714D59E1CB24211D31946A06810
:103EEC0001F04CFFB3B20146EA060CD5A0895A1C6E
:103EFC00904208D3A268D25C28460EF0DDF9F3E6B6
:103F0C004FF6FF71F0E7FF22F6E7037D82898068A8
:103F1C00591C8A429DB228BF013505F102062CBFFF
:103F2C0010F803804FF0FF08B24233D3294601F05A
:103F3C0025FFB5B28146A289A0686B1C9A422ABFA4
:103F4C0010F805A04FF0FF0A9DB218F0070624D117
:103F5C0005F1040B5A4530D3294601F009FF1FFA2D
:103F6C008BF507464FF0FF0BA289A0680A92691CDB
:103F7C008A4223BF435D09938DB2FF23284438BF87
:103F8C00099301F013FF0A9A28440130824217D298
:103F9C0080205BE64FF6FF79CDE7022E0CD105F1C0
:103FAC0008039A4271D346199DB210F805B0013539
:103FBC00ADB24FF0FF37D7E700264FF0FF37D1E710
:103FCC00A289A068294601F0DFFE099B0390CDE988
:103FDC0001B300963B465246494640460EF03CFA29
:103FEC0082E6007DA289031D9A42D1D386B2A568D0
:103FFC00F31CB21C711C0436EB5CAA5C695C285C7B
:10400C00354400950EF0D6FA6EE6037D8289591C74
:10401C008A42BDD38068C65C9FB216F01F0507F1BB
:10402C00010104D101F0A4FE791D002206E0022D4D
:10403C001BD1421807F109014FF0FF3006F00703BE
:10404C00022B01BFA3684D1C5B5CA9B206F01805DE
:10405C0018BFFF23082D0ABFA568FF256D5C0095CE
:10406C00014630460EF094FB3EE64FF0FF30DCE7A5
:10407C000020EBE5002521E6002772E600230993DA
:10408C008EE609934FF6FF789DE600268DE7B9F191
:10409C00200F4FF6FF787FF499AEFDE62DE9F04343
:1040AC00C37B85B00446002B40F0A482C37C062B56
:1040BC0000F05C813AD8022B00F0EB8007D8002B83
:1040CC0000F08F80012B00F0C48081208FE0042B46
:1040DC00067D858900F02A8140F20481731C9D4283
:1040EC00C0F08480B7B207F1010C0CF101039D42C2
:1040FC007CD3FA1C954207F1020377D38068F91C34
:10410C00C25C4B1C9D4224BF435C391D01F101076D
:10411C0038BFFF23BD4228BF455C10F80C10805DF2
:10412C0038BFFF25009506F017FD89E00A2B00F03B
:10413C00AA8139D8082B017D828900F07B8140F25D
:10414C0044818B1C9A4251D38DB22946806801F070
:10415C0015FEA91CA2898B1C9A42074646D3A0685F
:10416C0001F00CFE291DA2898B1C9A4280463DD37E
:10417C00A06801F003FEA91DA6894B1C9E4222BF1C
:10418C00A3685B5CE91D024601F1010038BFFF2307
:10419C0086422ABFA068FF21415C009138B20FFA19
:1041AC0088F106F0F1FD4BE04B2B00F097814C2B86
:1041BC0000F0D481472B88D1027D8189501C81422B
:1041CC0093B222BFA0680133805C03F1010238BFB7
:1041DC00FF2091422ABFA268FF21D15C06F076FF36
:1041EC002EE0037D8289591C8A4203D2802005B0BF
:1041FC00BDE8F0839DB2A91C8A4205F10107F5D3F5
:10420C00881C8242F2D3A068C65CC75D01F0B6FD83
:10421C00291DB4F80CC04B1C9C4522BFA3685B5CE9
:10422C00691D024601F1010038BFFF2384452ABFF6
:10423C00A068FF21415C00913046394606F07EFBB8
:10424C00002840F0D981E37B002B14BF8320812010
:10425C00CDE7067D8589731C9D42C7D3B7B2BA1CC6
:10426C00954207F10103C1D38068C15C134601324A
:10427C00954224BFC25CFB1C03F1010738BFFF222F
:10428C00BD4228BFC35C805D38BFFF2306F0A2FA95
:10429C00D6E7077D85897B1C9D42A7D3BEB206F16C
:1042AC00010C0CF101039D42A0D3F21C954206F1C6
:1042BC0002039BD38068F11CC25C4B1C9D4224BF43
:1042CC00435C311D01F1010638BFFF23B54228BF05
:1042DC00455C10F80C10C05D38BFFF25009506F04A
:1042EC00DFFBADE7731C9D4280D3B7B2791C8B1CEE
:1042FC009D42FFF47BAF80682A46865D01F03EFD4F
:10430C00FB1CA5895A1C954222BFA268D25C3B1D9E
:10431C00014603F1010038BFFF2285422ABFA06885
:10432C00FF23C35C304606F071FB89E7731C9D428A
:10433C00FFF45CAFB7B2BA1C954207F10103FFF46E
:10434C0055AF8068C15C13460132954224BFC25CF4
:10435C00FB1C03F1010738BFFF22BD4228BFC35C21
:10436C00805D38BFFF2306F097FA69E7037D8289E9
:10437C00591C8A42FFF43AAF9DB2A91C8A4205F13E
:10438C000107FFF433AF881C8242FFF42FAFA06803
:10439C00C65CC75D01F0F2FC291DB4F80CC04B1CC7
:1043AC009C4522BFA3685B5C691D024601F10100BC
:1043BC0038BFFF2384452ABFA068FF21415C0091D0
:1043CC003046394606F098F93AE78B1C9A42FFF4CE
:1043DC000DAF8DB22946806801F0D0FCA91CA289D2
:1043EC008B1C9A420746FFF401AFA06801F0C6FC93
:1043FC00291DA2898B1C9A428046FFF4F7AEA06857
:10440C0001F0BCFCA91DA6894B1C9E4222BFA368CF
:10441C005B5CE91D024601F1010038BFFF238642B7
:10442C002ABFA068FF21415C00913846414606F046
:10443C00EBFB05E78B1C9A42FFF4D8AE8DB22946F4
:10444C00806801F09BFCA91CA2898B1C9A42074630
:10445C00FFF4CCAEA06801F091FC2B1DA6895A1C70
:10446C00964222BFA268D25C6B1D01B203F101001F
:10447C0038BFFF2286422ABFA068FF23C35C38B234
:10448C0006F016FCDCE6057D8289AB1C9A42FFF433
:10449C00ADAEADB22946806801F070FCA91CA289B2
:1044AC008B1C9A420746FFF4A1AEA06801F066FC93
:1044BC002B1DA6895A1C964222BFA268D25C6B1D8A
:1044CC00014603F1010038BFFF2286422ABFA068D3
:1044DC00FF23C35C384606F0D1FCB1E6037D82892C
:1044EC00591C8A42FFF482AE9DB2691C881C824220
:1044FC00FFF47CAEA068C65C01F040FCE91CA2890C
:10450C008B1C9A420746FFF471AEA06801F036FC92
:10451C00691DA2898B1C9A428046FFF467AEA06885
:10452C0001F02CFCEA1DB4F80CC0511C8C4522BFC8
:10453C00A168895C05F10802034602F1010038BF4D
:10454C00FF21844526BFA068825CFF22CDE90012C2
:10455C0030464246394606F0ABFC71E6037D828953
:10456C00591C8A42FFF442AE9DB2691C881C8242DF
:10457C00FFF43CAEA068C65C01F000FCE91CA2890B
:10458C008B1C9A420746FFF431AEA06801F0F6FB93
:10459C00691DA2898B1C9A428046FFF427AEA06845
:1045AC0001F0ECFBE91DA2898B1C9A428146FFF4B9
:1045BC001DAEA06801F0E2FB05F10902A389511CB4
:1045CC008B4222BFA168895C05F10A0202F1010548
:1045DC0038BFFF21AB4224BFA3689A5C009038BF60
:1045EC00FF22CDE901124B4642463946304606F0D1
:1045FC00C5FC25E68320FAE50020F8E5C37B10B561
:10460C0004460BB1832010BDC37C412B03D0422B3D
:10461C000FD08120F7E7037D81895A1C914212D378
:10462C008268D05C17F0CCF878B9E37B002BE9D129
:10463C00EFE7037D81895A1C914204D38268D05CD8
:10464C0017F00EF9F0E78020DDE70020DBE7000033
:10465C00C37B70B50446FBB1036941F2A20223F49B
:10466C007F0393421AD1057D86898068284401F026
:10467C009DFB28440130864201D2802070BDA28966
:10468C00A068294601F080FBFCF7EEF9002840F009
:10469C008680E37B002B74D18120EFE7414A934263
:1046AC0011D1057D86898068284401F07FFB284460
:1046BC0001308642E1D3A289A068294601F064FB4F
:1046CC00FCF710FAE2E7384A934211D1057D86894E
:1046DC008068284401F06AFB284401308642CCD320
:1046EC00A289A068294601F04FFBFCF709FACDE737
:1046FC002E4A93420AD1017D82898B1C9A42BCD3EB
:10470C00806801F03BFBFCF7D9FABFE7284A9342DB
:10471C000AD1017D82898B1C9A42AED3806801F04C
:10472C002DFBFCF7BDFAB1E7224A93420AD1037D77
:10473C00818903F1080291429FD380681844FCF7E9
:10474C00EFFAA3E71C4A93420AD1037D818903F156
:10475C000802914291D380681844FCF7B9FA95E7A6
:10476C00164A93420AD1037D818903F108029142D2
:10477C0083D380681844FCF71DFA87E7104A9342EC
:10478C0001D083207AE7017D82898B1C9A42FFF449
:10479C0074AF806801F0F2FAFCF770FA76E700204B
:1047AC006CE700BFA2100002A2100005A2100006C8
:1047BC00A2100007A2100010A2100011A2100013EA
:1047CC00A210001538B5C37B002B437D14BF832585
:1047DC00C325012B044619D10368028A59885879DC
:1047EC00FDF732FF90B123685B88192B03D0212B86
:1047FC0007D0284638BDE37B0BB18325F9E781252B
:10480C00F7E72046BDE83840FFF719BA637D002B67
:10481C00EFD12368228A59885879FDF70CFF0028BC
:10482C00E7D023685B88062B37D012D8032B2AD00D
:10483C0006D8002BDDD12046BDE83840FEF7E0BE9F
:10484C00042B25D0052BD4D12046BDE83840FEF7EB
:10485C0094BFB3F5806FCED009D8082B22D0B3F516
:10486C00407FC6D12046BDE83840FFF717BCB3F5F2
:10487C00805F1CD04FF610429342BAD12046BDE85F
:10488C003840FFF7E5BE2046BDE83840FEF7CABE0B
:10489C002046BDE83840FEF7F5BE2046BDE838405E
:1048AC00FFF7A2B82046BDE83840FFF7E9B820462C
:1048BC00BDE83840FFF7A2BE7047012070470120C9
:1048CC0070470120704770470020704700207047E8
:1048DC000020704700207047002070470020704770
:1048EC000120704701207047B520704700207047A9
:1048FC000020704700207047002070470020704750
:10490C0070470020704700207047704700207047A8
:10491C0084207047704770477047704770477047E6
:10492C0070477047002070477047704770470020F1
:10493C007047704702F0F0B90320704700207047B1
:10494C00034B1B681878012808BF0220704700BF72
:10495C00F42200207047002070470000034A0346F1
:10496C000120C3E9032000221A7070470100FEFFEA
:10497C007047704770470020704700207047002038
:10498C007047002070477047002070477047002028
:10499C0070470020704700207047002070470020AF
:1049AC007047002070470020704700207047704708
:1049BC00B5207047002070470020704770470020DA
:1049CC0070477047704770477047B5207047704705
:1049DC007047704700207047704701220021092062
:1049EC0004F074BA02292DE9F84F0546894604D81B
:1049FC004FF0000B5846BDE8F88F1BB10429F7D9CE
:104A0C0042F004020C9C2A70002B50D06B701B0AD5
:104A1C00AB70032703F038FE07F1020BE8550137A2
:104A2C009DF82830EB55464E4FF000085FFA88F39E
:104A3C000B9AD05C0028DDD0732861D8A0F14C0310
:104A4C00DBB2162B04F10407D4F800A039D826FAEF
:104A5C0003F3DB4313F001033BD162684C2804F1F0
:104A6C00080794B225D14FF6FF7322469C4214BF1F
:104A7C00022300230BEB040018448145B8DBDE460F
:104A8C001846002851D19B441FFA8BFB5CB1BAF13C
:104A9C00000FADD005EB0B002246514601F068F833
:104AAC00A3441FFA8BFB08F101083C46BEE7012723
:104ABC00B0E753281BD1D2B2B2F1FF0318BF0123C8
:104ACC00D8E76C2805D1504601F075F9023084B254
:104ADC000CE0732804D1504601F068F90130F6E778
:104AEC00A0F13004E3B2092B03D8A4B200231A4678
:104AFC00C0E7A0F14103062B3FF67AAF3738E6E763
:104B0C00752808D076280CD078280CD077287FF41C
:104B1C006FAF042300E00123271D22680024A24666
:104B2C00A8E70223F8E70323F6E70EF1010C01389E
:104B3C0005F80E20C0B2120A1FFA8CFEA1E700BFC6
:104B4C008100400010B5044C2060044801800449E9
:104B5C000A60044A136010BD642200206822002001
:104B6C00602200205C22002070B586B00AAC0D4695
:104B7C0054F8046B0B49059409880093CDE9016442
:104B8C001346024608480068FFF72CFF074B1B68CA
:104B9C001880074B1B684FF48A525D80DA8006B090
:104BAC0070BD00BF6822002064220020602200201B
:104BBC005C22002008B430B586B009AB0C4653F823
:104BCC00045B0D49059309880092CDE90153024617
:104BDC000A4800230068FFF705FF094B1B68188083
:104BEC00084B1B684FF48A525C80DA8006B0BDE833
:104BFC00304001B0704700BF6822002064220020C2
:104C0C00602200205C220020044B054A19681268BF
:104C1C000988034603480068FCF76ABB6022002041
:104C2C00642200205C2200200020FFF7EDBF000072
:104C3C001FB5074C246824880091CDE90123054950
:104C4C00054B09681B682246FCF78EFA04B010BDB0
:104C5C00602200205C220020642200200023FFF749
:104C6C00E7BF0000044B054A1B6812681988044B07
:104C7C001868FCF7A9BA00BF60220020642200204B
:104C8C005C22002007B5074B1B681B880192064A63
:104C9C0012680092054A1268FCF7FEFA03B05DF840
:104CAC0004FB00BF60220020642200205C22002054
:104CBC000022FFF7E7BF00001FB5074C24682488CB
:104CCC000091CDE901230549054B09681B68224673
:104CDC00FCF7C6FA04B010BD602200205C22002054
:104CEC00642200200023FFF7E7BF00001FB5094C2A
:104CFC0024680394084C246824880294BDF8184056
:104D0C000194064C246864880094FCF727FB04B0DB
:104D1C0010BD00BF64220020602200205C22002015
:104D2C00014B1868704700BF5C220020024B1B68C7
:104D3C0018715971704700BF5C220020F8B50D4600
:104D4C008C680A6826490646202008F08AFA6B68A7
:104D5C007BB92449202008F084FA202014F0B0FFFD
:104D6C002149202008F092FA2020BDE8F84014F0E8
:104D7C00A7BF002EF1D01D4D1D4E1E4F013C14F847
:104D8C00013F23B91849202008F080FAE5E7752B7C
:104D9C0016D0762B16D0772B16D0732B16D0722BF1
:104DAC0016D0712B16D0622B16D06E2B16D0124942
:104DBC00124A2A2B18BF1146202008F052FADEE7BF
:104DCC002946F9E73146F7E73946F5E70C49F3E7A9
:104DDC000C49F1E70C49EFE70C49EDE70C49EBE71F
:104DEC00B7DF030026C30300D7C20300E4C20300ED
:104DFC00D8C20300EFC203002DC303002AC3030073
:104E0C00FBC2030005C3030010C303001BC3030054
:104E1C0025C30300F0B5214A92F87B30184452FAAE
:104E2C0080F01F4B90F865C090F866501F78A5EB8A
:104E3C000C050026EDB23046F4B2A54225D90CEB98
:104E4C00060313445B7811B10CB92D2B17D0782BBA
:104E5C001FD0582B05D108B137240AE0013C012C96
:104E6C0014D9602B17D8402BF6D83A2B34BF3024EA
:104E7C0000241B1BDBB29F4203D900FB0730013619
:104E8C00DAE7052382F879300020F0BD10270020E6
:104E9C00F5E70028E2D05724EBE700BF6A22002098
:104EAC00F21B0020094A0023FF21137082F878308E
:104EBC0082F8653082F8773082F8793082F87A108F
:104ECC0082F87B30024A1360704700BF6A220020D0
:104EDC00AC3C0020034B93F8770093F87B30C01A5E
:104EEC00C0B270476A2200200021FFF793BF000078
:104EFC0010B50A4B93F87B20024453FA82F292F8D5
:104F0C00652013445C78A4F12D0359425941FFF7F5
:104F1C0081FF2D2C08BF404210BD00BF6A2200202B
:104F2C0030B50C4A92F87B300344C043DBB2C00F5F
:104F3C0039B1D51895F8664095F86550641B241A5C
:104F4C000C7042FA83F393F865301844024B184402
:104F5C0030BD00BF6A2200206B220020F7B50E4640
:104F6C000DF1070115461C46FFF7DAFF9DF80730D7
:104F7C00AB42074688BF8DF807501CB19DF807401F
:104F8C002C1BE4B222463046002100F04DFE3019B5
:104F9C009DF80720394600F0EBFD9DF8070003B0A3
:104FAC00F0BD38B508220C460123FFF7D7FF04F1FA
:104FBC000803621E043413F8011D12F8015F1D7002
:104FCC00A3421170F7D138BD38B501460546012012
:104FDC00FFF7B4FED5E901436CB91C46084D2368B4
:104FEC0063B12946202008F03CF921460020FFF748
:104FFC00A5FE0C34F3E71B786E2BEFD038BD00BF49
:10500C00BEFD030008B50449202008F02AF9202031
:10501C00BDE8084014F054BE98C2030038B5FFF741
:10502C00F1FF064D002461190C34631953F80C3C44
:10503C0003B938BD0020FFF781FEF4E770AC030024
:10504C002DE9F84F1F4B204D53F820201F492020ED
:10505C0008F007F92B681BB9BDE8F84FFFF7DEBF66
:10506C001B4FDFF874A0FFF7CDFF0026B94697F869
:10507C007B30F4B2013B9C4204DB2868BDE8F84F5E
:10508C00FFF7A2BF47FA86F34C4493F865800023E0
:10509C00C84494F8662094F86510521A03F1010B79
:1050AC00D2B2DBB2934205D30A49202008F0D9F8DA
:1050BC000136DCE7434451465A78202008F0D1F8F9
:1050CC005B46E6E7F41B0020AC3C002093C20300D7
:1050DC006A220020BFFD0300A6E003002DE9F74F74
:1050EC00824C94F87730002B00F0A380804B1B7817
:1050FC0013F0010F04F101071FD000257D4E14E0C1
:10510C006319202093F8662093F86530D21A44FA7C
:10511C0085F3D2B293F86510394414F0CCFD3146C6
:10512C00202008F09EF80135EDB294F87730AB42B0
:10513C00E6D87149202008F094F894F87730019360
:10514C00DFF8C0E16D4B002671461EF8012B91F87B
:10515C0001C04FF00008ACEB020C07EB020A5FFA3F
:10516C008CFC45461868002853D00138D14619E00C
:10517C002AB9002D4BD04FF001080C33F2E719F887
:10518C00011BA1F1410BBBF1190F98BF2031A2F10A
:10519C00410B98BFC9B2BBF1190F9CBF2032D2B2E0
:1051AC008A42EAD1A9EB0A01614510F8012FDFD13F
:1051BC00002ADED11D46524B1D6094F87B30013322
:1051CC0084F87B30D5E901230136F6B2002A36D0BB
:1051DC001B786E2B32D03F2B24D04FF000094F465A
:1051EC004FF0070A4FF0040B5FFA89F0811994F81D
:1051FC0077C0AA68C9B28C45D35D28D893B117443F
:10520C007B782A2B1CBF032384F879300AE01D46D7
:10521C00B3E7B8F1000F01D1002DCCD1022384F8F3
:10522C007930002594F8790000285CD1686800F08A
:10523C002FF903B0BDE8F04FFFF734BE1346019AC7
:10524C00B24281D8032284F879201D46EAE7732BF9
:10525C0008D8712B0AD2002B43D0622B30D084F8A3
:10526C0079A016E0A3F17502022AF8D8752B1ED08E
:10527C00762B1FD0732B20D0722B47F6FF7818BFDC
:10528C004FF0FF380121FFF7C5FD404501D984F8E7
:10529C0079B0AB683B4409F101095B782A2B94F88F
:1052AC0079301CBF0137FFB2002B9DD0BAE74FF00D
:1052BC00FF08E7E74FF6FF78E4E74FF07F08E1E7F8
:1052CC0094F87B30184454FA80F090F865302344FD
:1052DC005B78222BDDD07B2BDBD0052384F8793057
:1052EC00D7E70323FAE7FFF7ABFEA2E76A22002019
:1052FC00E6220020BFFD0300D5C2030070AC030002
:10530C00AC3C0020CF2200202DE9F3415E4C5F4FD6
:10531C0006460D464FF0000866B90DF10701284608
:10532C0014F0C4FC78B1262800F0A980012384F87D
:10533C0079304BE0002D00F0A28016F8013B8DF87F
:10534C000730013DEDB23A789DF807303B700D2ADD
:10535C0001D10A2BE0D00D2B0CD0A3F10A02514243
:10536C00514122788846042AD6D8DFE802F0051D80
:10537C00263C31000121F4E721B1FFF7AFFE4FF0DD
:10538C000108C9E7202B63D0222B07D102232370FD
:10539C0094F87820642A5DD10623C8E77B2B01D1D1
:1053AC000323F4E70123F2E709B9202BF0D194F899
:1053BC007730112B3FD10323B9E7222BF7D00029EB
:1053CC00E6D0052384F879304FF0010804232370CC
:1053DC00B8F1000FA0D094F8790008B1FFF730FEB7
:1053EC00FFF760FD98E77D2B94F87A0003D1FF2836
:1053FC00DDD005239BE7602B13D8402B13D8392B1A
:10540C008CBF002230229A1AD2B20F2A10D8FF2851
:10541C000BD002EB0012FF238DF8072084F87A30B2
:10542C00B6E75722EFE73722EDE784F87A2073E7E7
:10543C00202BDED170E70133DBB284F877302344C4
:10544C0094F8782083F8652000232370002994D1E8
:10545C00884661E72378012B09D19DF80730A3F129
:10546C00410119299CBF2033DBB28DF80730A318FA
:10547C009DF807105970013284F878204CE74046AB
:10548C0002B0BDE8F08100BF6A220020E7220020B4
:10549C0010B5054B0446187800F0A2FCA047BDE8F7
:1054AC00104000F0A4BC00BFF82200207FB501A87A
:1054BC00FCF72CFA01AA0349022001F0E7F807B027
:1054CC005DF804FB10C603002DE9F04F18228DB0D7
:1054DC00FF230DEB020000218DF80A3033F0FDFEA6
:1054EC000DF10B014FF0FF30FFF71AFDFFF7DEFF58
:1054FC0041F202029D49022001F0C8F804A8FCF711
:10550C00E7FC06A90DF10A00FCF7E8FC022098491B
:10551C0001F0D8F8022001F0A5F810B104A801F0B0
:10552C001DF89DF922309DF823209249022001F0AC
:10553C00ADF826F073FF831EDBB2FC2B05462AD890
:10554C008D498E4E8E4FDFF8A482022001F09EF81A
:10555C00012422463146022001F0B4F803A9E0B23E
:10556C0026F006FF9128024600F09580932800F063
:10557C009280002840F094809DF90C1000919DF8C9
:10558C000E309DF80D207F49022001F07FF8013488
:10559C00E3B2AB42DDD3BDF82040FCF7B3FA2246B0
:1055AC0003467949022001F08DF80220774901F079
:1055BC0089F8022001F056F810B106A800F0CEFFD1
:1055CC007349022001F062F82CF0BCF804462CF070
:1055DC00B3F8224603466F49022001F057F8FCF756
:1055EC0097FC6D49022001F06DF89DF80A20FF2A06
:1055FC005BD06A49022001F065F86549DFF8F0815B
:10560C00022001F043F8FCF775FC654A6549034636
:10561C00022001F03BF826F073FE6349024602209B
:10562C0001F050F8FCF76CFC0446FCF76FFC2246CA
:10563C0003465E49022001F029F8FCF7DBFD5C49CA
:10564C000246022001F022F80025FCF7D3FDECB253
:10565C00A0422FD801225749574C022001F016F8CE
:10566C00002000F0BDFB554B55490022022001F0F3
:10567C000DF8236853B11A785249022001F006F84C
:10568C00236851495A78022001F000F800F0AFFB72
:10569C000DB0BDE8F08F3946022000F0F7FF76E739
:1056AC004146022000F0F2FF71E74849022001F068
:1056BC0009F8A2E7464B474F03EB04162046D6F8F1
:1056CC000890FDF733F882462046FCF799FD002838
:1056DC0014BFC346BB462046FDF728F802F0AEFEC9
:1056EC00002814BF404638465B46009052463A4963
:1056FC00DFF800B1022000F0E5FFB1797388327B4E
:10570C000191B18800910220344900F0BFFF0026BE
:10571C0099F80430F4B2A34201D8013595E7D9F8D1
:10572C0000702F482F4914235C4307EB040A3B5BA2
:10573C009AF90C2011EA220138BF01460A460220D0
:10574C00594600F0BFFF022000F08CFF38B15046E4
:10575C003C5BFCF78DFD0146204602F01FFF224901
:10576C00022000F093FF0136D2E700BFC8C303004C
:10577C00E3C303000FC40300EAC3030000C4030027
:10578C0024C4030007C403003AC4030058C4030034
:10579C0015A0030061C4030082C4030018F60300C3
:1057AC00B6F7030095C40300A3C40300B7C40300F9
:1057BC00C6C403003AC50300F422002046C503000A
:1057CC0054C5030060C5030072C503008DC40300FB
:1057DC00F4390020A7C30300D1C40300F1C40300B3
:1057EC00BCC30300B0C30300D7C203002FC4030023
:1057FC009FC3030023C5030008B50020FFF774FB0B
:10580C00BDE8084080B200F0ABBF08B50020FFF740
:10581C006BFBBDE8084080B200F0B6BF70B5074D19
:10582C00074E00240C34631953F80C2C02B970BDCC
:10583C003146022000F02AFFF4E700BF70AC0300F1
:10584C00B7DF030007F0F8B908B50020FFF74CFBF1
:10585C00054B1A7810F0FF0F14BF42F0010222F032
:10586C0001021A7008BD00BFE62200202DE9F843A2
:10587C001FF060FB104EDFF84C80DFF84C900746B1
:10588C000025EBB256F833400CB9BDE8F88358F854
:10589C0023204946012000F015FF23782BB9074936
:1058AC00012000F0F3FE0135EBE762680449D21BDE
:1058BC00012000F0EBFEF6E77499030001C603002B
:1058CC000AC60300481B0020FAC5030010B52FF0D0
:1058DC00F5FD0D490446012000F0F4FE022C0DD01C
:1058EC00032C0DD0012C0DD10849012000F0EAFE4B
:1058FC0007490120BDE8104000F0C8BE0549F4E797
:10590C000549F2E70549F0E78BC50300A8C503007C
:10591C00AB050400AEC50300BDC50300CDC5030037
:10592C002DE9F843114EDFF854800025FCF762FC9A
:10593C00ECB2A04201D8BDE8F8832701204616F846
:10594C000790FCF75DFC0A4B0A49002818BF434638
:10595C004A46012000F0B6FEF05DFCF736FB064926
:10596C00012000F093FE0135E0E700BFF439002080
:10597C001CC70300EFC50300D7C2030012C7030006
:10598C0008B50020FFF7B0FA094B1B681B681978A3
:10599C00A1F1650359425941C0B2FDF7C1FA28B9CA
:1059AC0004490120BDE8084000F070BE08BD00BFEE
:1059BC00AC3C0020D5C5030049BA89B24840C0F3BD
:1059CC0003114140080380B24840C3B280EA43103F
:1059DC0070470000014B1878704700BFE822002088
:1059EC00014B1870704700BFE822002022F0C0BEA7
:1059FC0038B5A0F1430305460A2B31D8DFE803F094
:105A0C00060A0A121230303030301100BDE838402E
:105A1C001DF028BB1DF0F2FA20B11DF023FB00286D
:105A2C00FBD138BD114C20780028FAD10123443D1C
:105A3C00237014F0ABFD032D0DD8DFE805F006063E
:105A4C00090240F601001FF045FA00232370E8E735
:105A5C0040F60200F7E77A21054806F0EFF9F4E783
:105A6C008C210348BDE8384006F0E8B9E922002053
:105A7C001FC60300704770477047704770477047E8
:105A8C0070477047704770477047002070477047E9
:105A9C007047704700207047704770470020704770
:105AAC0070477047002070477047012070470120F5
:105ABC0070477047704770477047704770470000D9
:105ACC002DE9F047204DDFF8A090DFF8A0A00024CE
:105ADC005FFA84F8404626F0ADFCFF2806460CD150
:105AEC0022461A49287807F0D1FB2878013414F0A3
:105AFC00E7F8142CECD1BDE8F087154B59F82420AD
:105B0C00144947B213EA270338BF5346287807F0E5
:105B1C00BDFB002FE9DA14B1B8F1030F08D10E4B1D
:105B2C000E49287816F0010F18BF194607F0AEFB86
:105B3C000A2CDAD10A4B0B49287816F0010F18BF42
:105B4C00194607F0A3FBD0E7F11B002025C7030083
:105B5C00D7C203004DC70300E8C60300FEC603000E
:105B6C0010C703001AC7030094C60300F2CB03004E
:105B7C008842F0B54FEA92031AD89BB29E0087195F
:105B8C0004460D4604370434BC4205F104053AD1F1
:105B9C00C3EB8333314402EB8303013E304411FAEF
:105BAC0083F3994220D011F8012B00F8012FF8E76C
:105BBC00541E20449BB22144A0EB830604460D46A0
:105BCC00043E043CB442A5F104050ED16FF003046D
:105BDC005C43C3EB833302EB830321449BB201345C
:105BEC002044CB1A994209D1F0BD2F792771EF7857
:105BFC00E770AF78A7706F786770E2E711F801294A
:105C0C0000F8012DEEE715F804CC04F804CC15F8D7
:105C1C0003CC04F803CC15F802CC04F802CC15F82C
